:02000004605842
:10040000000004203D2B5C608D2A5C60A9795B6054
:10041000952A5C60992A5C609D2A5C60000000005F
:10042000000000000000000000000000A12A5C6045
:100430000000000000000000EB785B60A52A5C6013
:10044000A92A5C60A92A5C60A92A5C60A92A5C6070
:10045000A92A5C60A92A5C60A92A5C60A92A5C6060
:10046000A92A5C60A92A5C60A92A5C60A92A5C6050
:10047000A92A5C60A92A5C60A92A5C60A92A5C6040
:10080000A92A5C6048656C6C6F2052542D54687244
:100810006561640D0A0000004974277320636F72DC
:100820007465782D6D35350D0A000000040099714E
:1008300002A2000000000000000000000000000014
:1008400000000000000000000000000000000000A8
:100850000000000000000000000000000000000494
:1008600000997102A30000000000000000000000D9
:100870000000000000000000000000000000000078
:100880000000000000000000000000000000000068
:1008900000000400997102A40000000000000000A4
:1008A0000000000000000000000000000000000048
:1008B0000000000000000000000000000000000038
:1008C00000000000000201A4310000000000000050
:1008D0000000000000000000000000000000000018
:1008E0000000000000000000000000000000000008
:1008F00000000000000000000801B022571E612F18
:10090000576100000000000000000000000000002F
:1009100000000000000000000000000000000000D7
:1009200000000000000000000000000301B7646444
:1009300000000000000000000000000000000000B7
:1009400000000000000000000000000000000000A7
:100950000000000000000000000000000000030193
:10096000BFB4B40000000000000000000000000060
:100970000000000000000000000000000000000077
:100980000000000000000000000000000000000067
:10099000002600C800000F1C34006003A00610FEF3
:1009A00006740321C400080022460F8F0A32F20C9D
:1009B000420CF38000ABC003C40000000000000044
:1009C000000000002600C900000F1C34006003A0D6
:1009D0000610FE06740321C400080022460F8F0A89
:1009E00032F20C420CF38000ABC003C400000000E4
:1009F000000000000000002600C80000132444008E
:100A00007403B804111608860421D302100F224D76
:100A10000E900932F00B400EF37D0EA9BF03C40007
:100A2000000000000000000000002600C9000013C4
:100A30002444007403B804111608860421D302105C
:100A40000F224D0E900932F00B400EF37D0EA9BF20
:100A500003C400000000000000000000000701D7F0
:100A6000100C3619909000000000000000000000FB
:100A70000000000000000000000000000000000076
:100A80000000000000000000000000000000000066
:100A90002101A3510380CF440000000004787800B6
:100AA0001A00450500000000460000022052000523
:100AB0000000FF0000000000000000000000000037
:100AC0000000002D01A6020024553500380078787A
:100AD00000245536003700787802AC513A00000007
:100AE000787803AC210004000078783E000600000E
:100AF0000000000000003101A7191900644007162A
:100B00004000040378780064402534000002017836
:100B1000780064404B5A0000020178780024406954
:100B20007800000000787800442601AC080A110023
:100B300013031B18061A191B1B1B181B090B100289
:100B400012011B18061A191B1B1B181BFF67FF67D6
:100B50000000000000000000000000000801ADCC13
:100B600040461104787800000000000000000000FA
:100B70000000000000000000000000000000000075
:100B80000000000000000000000000000000000F56
:100B900001E830070094949C00E20400000000EF9C
:100BA0000000000000000000000000000000000045
:100BB0000000000000000000000000000000000035
:100BC00000002201E78B3C000CF05D005D005D0041
:100BD0005D00FF00087B0000C86A5A081A3C0081CB
:100BE00001CC017FF02200000000000000000000A6
:100BF00000000000000201350000000000000000BD
:100C000000000000000000000000000000000000E4
:100C100000000000000000000000000000000000D4
:100C200000000000000000001B5B33316D5B452FAE
:100C30004442475D20000000736F66742072657344
:100C40006574206661696C65640000001B5B306D33
:100C50000A00000044656D6F00000000736F667449
:100C60005F72657365745F74657374001B5B306DD0
:100C70005B442F6472765F6879706572616D5D2088
:100C8000000000006879706572616D20696E69749A
:100C900020737563636573732C206D617070656478
:100CA00020617420307825582C2073697A6520697A
:100CB000732025642062797465732C2064617461EB
:100CC000207769647468206973202564000000003F
:100CD0006879706572616D00000102030405060702
:100CE00008090A0B0C0D0E0F10111213141516170C
:100CF00018191A1B1C1D1E1F2021222324252627FC
:100D000028292A2B2C2D2E2F3031323334353637EB
:100D100038393A3B3C3D3E3F4041424344454647DB
:100D200048494A4B4C4D4E4F5051525354555657CB
:100D300058595A5B5C5D5E5F6061626364656667BB
:100D400068696A6B6C6D6E6F7071727374757677AB
:100D500078797A7B7C7D7E7F80818283848586879B
:100D600088898A8B8C8D8E8F90919293949596978B
:100D700098999A9B9C9D9E9FA0A1A2A3A4A5A6A77B
:100D8000A8A9AAABACADAEAFB0B1B2B3B4B5B6B76B
:100D9000B8B9BABBBCBDBEBFC0C1C2C3C4C5C6C75B
:100DA000C8C9CACBCCCDCECFD0D1D2D3D4D5D6D74B
:100DB000D8D9DADBDCDDDEDFE0E1E2E3E4E5E6E73B
:100DC000E8E9EAEBECEDEEEFF0F1F2F3F4F5F6F72B
:100DD000F8F9FAFBFCFDFEFFFFFFFFFFFFFFFFFF3F
:100DE000FFFFFFFFFFFFFFFFFFFFFFFFFFFFFFFF13
:100DF000FFFFFFFFFFFFFFFFFFFFFFFFFFFFFFFF03
:100E0000FFFFFFFFFFFFFFFFFFFFFFFFFFFFFFFFF2
:100E1000FFFFFFFFFFFFFFFFFFFFFFFFFFFFFFFFE2
:100E2000FFFFFFFFFFFFFFFFFFFFFFFFFFFFFFFFD2
:100E3000FFFFFFFFFFFFFFFFFFFFFFFFFFFFFFFFC2
:100E4000FFFFFFFFFFFFFFFFFFFFFFFFFFFFFFFFB2
:100E5000FFFFFFFFFFFFFFFFFFFFFFFFFFFFFFFFA2
:100E6000FFFFFFFFFFFFFFFFFFFFFFFFFFFFFFFF92
:100E7000FFFFFFFFFFFFFFFFFFFFFFFFFFFFFFFF82
:100E8000FFFFFFFFFFFFFFFFFFFFFFFFFFFFFFFF72
:100E9000FFFFFFFFFFFFFFFFFFFFFFFFFFFFFFFF62
:100EA000FFFFFFFFFFFFFFFFFFFFFFFFFFFFFFFF52
:100EB000FFFFFFFFFFFFFFFFFFFFFFFFFFFFFFFF42
:100EC000FFFFFFFFFFFFFFFFFFFFFFFFFFFFFFFF32
:100ED000FFFFFFFFFFFFFFFF00000000000000001A
:100EE0000000000000000000000000000000000002
:100EF00000000000000000000000000000000000F2
:100F000000000000000000000000000000000000E1
:100F100000000000000000000000000000000000D1
:100F200000000000000000000000000000000000C1
:100F300000000000000000000000000000000000B1
:100F400000000000000000000000000000000000A1
:100F50000000000000000000000000000000000091
:100F60000000000000000000000000000000000081
:100F70000000000000000000000000000000000071
:100F80000000000000000000000000000000000061
:100F90000000000000000000000000000000000051
:100FA0000000000000000000000000000000000041
:100FB0000000000000000000000000000000000031
:100FC0000000000000000000000000000000000021
:100FD0000000000000000000000000000000000011
:100FE0000000000000000000000000000000000001
:100FF00000000000000000000000000000000000F1
:1010000000000000000000000000000000000000E0
:1010100000000000000000000000000000000000D0
:1010200000000000000000000000000000000000C0
:1010300000000000000000000000000000000000B0
:1010400000000000000000000000000000000000A0
:101050000000000000000000000000000000000090
:101060000000000000000000000000000000000080
:101070000000000000000000000000000000000070
:101080000000000000000000000000000000000060
:101090000000000000000000000000000000000050
:1010A0000000000000000000000000000000000040
:1010B0000000000000000000000000000000000030
:1010C0000000000000000000000000000000000020
:1010D00000000000000000000020622CCF29A025A5
:1010E000002024195111D408622C903DFE3931346E
:1010F000622CDF2205183E0CCF29FE39A03629319B
:10110000CF29D920A016890BA025313429313E2CB6
:10111000A025901D5D14610A0020622CCF29A02516
:10112000002024195111D4082419DF22D920901D40
:101130002419C1139B0DEF0651110518A0165D145B
:1011400051119B0D5F09C704D4083E0C890B610A3D
:10115000D408EF06C7046F02000108100902030A51
:1011600011182019120B04050C131A2128302922FA
:101170001B140D06070E151C232A313839322B2477
:101180001D160F171E252C333A3B342D261F272EF4
:10119000353C3D362F373E3F1B5B33336D5B572F5E
:1011A0007576635F6170705D2000000055564320C6
:1011B000616C72656164792072756E6E696E672C00
:1011C0002073746F702066697273740D0A000000DA
:1011D0001B5B306D000000001B5B33326D5B492FE1
:1011E0007576635F6170705D2000000079757976B7
:1011F000000000005556432073746172743A202534
:101200007578257520666F726D61743D25730D0AC2
:10121000000000001B5B33316D5B452F7576635F0B
:101220006170705D20000000496E76616C69642019
:1012300059555956206672616D652073697A653A11
:101240002025757825752028256C75290D0A000044
:10125000555643206672616D6520706F6F6C206318
:101260007265617465206661696C65643A20256405
:101270000D0A00007576635F667073007576635FB4
:1012800066726D006D6A7065670000006672616D60
:101290006520232564202073697A653D25752066C5
:1012A0006D743D25730D0A00555643206670733AE0
:1012B000256420646973703A25642064726F703A03
:1012C0002575207572623A25640D0A005556432033
:1012D00073746F707065640D0A00000055564320EA
:1012E00066696C74657220656D70747920666F72C2
:1012F0006D61743A202575202D3E2025750D0A005C
:101300005556432064657669636520636F6E6E652C
:10131000637465640D0A0000555643206465766960
:10132000636520646973636F6E6E65637465640DD5
:101330000A00000053746F70205556432073747276
:1013400065616D00757362685F7576635F73746F56
:1013500070000000537461727420555643207374FA
:101360007265616D3A20757362685F7576635F734D
:1013700074617274205B666D745D205B775D205BC9
:10138000685D0000757362685F7576635F73746192
:10139000727400001B5B33316D5B452F7576635FA4
:1013A000646973705D2000004C434420686172647E
:1013B0007761726520696E6974206661696C656425
:1013C0000D0A00004C4344206672616D65627566CB
:1013D00066657220756E617661696C61626C650D1F
:1013E0000A0000001B5B33326D5B492F7576635F2B
:1013F000646973705D2000004C43443A2025757881
:1014000025752025646270702066623D257020730A
:10141000697A653D25750D0A0000000070617261F2
:101420006D000000736F6900756E6B6E6F776E00F4
:10143000736F732D6873656C00000000736F732DFC
:101440006265666F72652D736F663000736F66300C
:101450002D73686F72740000736F732D792D68752A
:1014600066662D6D697373696E670000736F732D07
:101470007472756E630000006E6F2D736F730000E1
:101480006468742D646300006468742D6461746121
:10149000000000006468742D696400006468742DA5
:1014A00073686F72740000006471742D7169640058
:1014B0006471742D707265636973696F6E000000EA
:1014C0006471742D73686F7274000000736F6630FE
:1014D0002D632D73616D7000736F66302D792D73E0
:1014E000616D7000736F66302D71696400000000DB
:1014F000736F66302D7472756E630000736F6630A3
:101500002D73697A65000000736F66302D6E636F0E
:101510006D7000006D61726B65722D6C656E000000
:101520007365676D656E742D6F76657272756E008A
:101530006D61726B65722D7072656669780000006E
:101540006D61726B65722D7472756E6300000000C0
:10155000736F732D632D687566662D6D697373697E
:101560006E670000736F732D6E636F6D7000000007
:101570001B5B33336D5B572F7576635F64697370E4
:101580005D2000004D4A50454720686561646572E2
:10159000207061727365206661696C65642073698F
:1015A0007A653D256C750D0A000000004D4A5045D6
:1015B000472068656164657220696E636F6D706C49
:1015C0006574653A20736F66303D256420647174DC
:1015D0003D2564206468743D256420736F733D2548
:1015E0006420656F693D25642073697A653D256CCB
:1015F000750D0A004D4A5045472070617463686557
:10160000643A206468743D256420656F693D2564F3
:101610002064726F703D256C752064717431363DA5
:101620002564206471746475703D2575206471743F
:1016300061696C3D25642073697A653D256C750D83
:101640000A0000004D4A504547206672616D6520D2
:101650006F766572666C6F77206166746572207054
:10166000617463682073697A653D256C750D0A00A5
:101670004D4A5045472076616C6964617465206607
:1016800061696C65643A202573206D3D257520776E
:10169000683D257578257520636F6D703D25752033
:1016A00071743D253032782064633D2530327820D6
:1016B00061633D253032782073697A653D256C750C
:1016C0000D0A00004D4A50454720707265706172E6
:1016D00065206661696C65643A20257320737263C6
:1016E0003D256C75206A7065673D256C750D0A0097
:1016F0004D4A504547206672616D6520746F6F20BA
:101700006C617267653A2025757825750D0A0000B1
:101710004D4A504547206465636F64652066616982
:101720006C65643A202573207372633D256C7520C7
:101730006A7065673D256C750D0A00006F6B0000CF
:10174000696E74657272757074656400696E707527
:10175000740000006D656D31000000006D656D3234
:1017600000000000666D743100000000666D743288
:1017700000000000666D74330000000000000000EF
:101780002018586010000000841958600C000000F8
:10179000100000000018586010000000D4185860B5
:1017A000A2000000010000001018586010000000A6
:1017B000781958600C00000011000000F017586004
:1017C0001000000030185860A20000003C1758605C
:1017D000401758604C175860541758605C17586091
:1017E0001C145860641758606C1758607417586060
:1017F0000002010204040304070504040001027747
:101800000002010303020403050504040000017D36
:1018100000030101010101010101010000000000BC
:1018200000010501010101010100000000000000AC
:1018300000010203110405213106124151076171B3
:101840001322328108144291A1B1C109233352F00D
:10185000156272D10A162434E125F11718191A26D7
:101860002728292A35363738393A434445464748E8
:10187000494A535455565758595A636465666768C0
:10188000696A737475767778797A828384858687B6
:1018900088898A92939495969798999AA2A3A4A5D9
:1018A000A6A7A8A9AAB2B3B4B5B6B7B8B9BAC2C305
:1018B000C4C5C6C7C8C9CAD2D3D4D5D6D7D8D9DA31
:1018C000E2E3E4E5E6E7E8E9EAF2F3F4F5F6F7F84F
:1018D000F9FA00000102030004110512213141064A
:1018E00013516107227114328191A1082342B1C1C1
:1018F0001552D1F02433627282090A161718191A88
:1019000025262728292A3435363738393A4344459D
:10191000464748494A535455565758595A6364657F
:10192000666768696A737475767778797A8384856F
:10193000868788898A92939495969798999AA2A374
:10194000A4A5A6A7A8A9AAB2B3B4B5B6B7B8B9BAA0
:10195000C2C3C4C5C6C7C8C9CAD2D3D4D5D6D7D8BE
:10196000D9DAE1E2E3E4E5E6E7E8E9EAF1F2F3F403
:10197000F5F6F7F8F9FA000000010203040506077E
:1019800008090A0B000102030405060708090A0BEF
:101990001B5B33326D5B492F757362685F687562DC
:1019A0005D200000556E726567697374657220482A
:1019B000554220436C6173733A25730D0A00000091
:1019C0001B5B33316D5B452F757362685F687562B1
:1019D0005D20000048756220646570746828256485
:1019E00029206973206F766572666C6F770D0A0027
:1019F000556E61626C6520746F2073657420687524
:101A000062206465707468200D0A0000696E76615A
:101A10006C69642064657669636520624C656E67F5
:101A20007468203078253032780D0A00756E65783C
:101A30007065637465642064657363726970746F44
:101A400072203078253032780D0A00004875622007
:101A50006E706F727473202575206F766572666C78
:101A60006F770D0A0000000045703D253032782068
:101A7000417474723D25303275204D70733D25647C
:101A800020496E74657276616C3D25303275204D4B
:101A9000756C743D253032750D0A00002F64657633
:101AA0002F687562256400005265676973746572FA
:101AB0002048554220436C6173733A25730D0A0028
:101AC000687562696E745F74696D00004E6F206D99
:101AD000656D6F727920746F20616C6C6F63206923
:101AE0006E745F74696D65720D0A00004661696C01
:101AF00020746F20616C6C6F63206875625F636C2B
:101B00006173730D0A0000004661696C656420749E
:101B10006F207265616420706F7274202575207368
:101B200074617475732C206572726F72636F646573
:101B30003A2025640D0A00004661696C65642074D2
:101B40006F20636C65617220706F72742025752C34
:101B5000206368616E6765206D61736B3A25303470
:101B6000782C206572726F72636F64653A25640D1C
:101B70000A0000004661696C656420746F2064652A
:101B8000626F756E636520706F72742025750D0A23
:101B9000000000004661696C656420746F20726506
:101BA00073657420706F72742025752C20657272B5
:101BB0006F72636F64653A2025640D0A00000000AF
:101BC0004661696C656420746F20636C6561722086
:101BD000706F727420257520726573657420636858
:101BE000616E67652C206572726F72636F64653A0F
:101BF0002025640D0A0000001B5B33336D5B572FFB
:101C0000757362685F6875625D200000506F727462
:101C100020257520646F6573206E6F7420656E617A
:101C2000626C6520706F7765720D0A004E657720D3
:101C3000257320646576696365206F6E2042757335
:101C40002025752C204875622025752C20506F7238
:101C50007420257520636F6E6E65637465640D0A6C
:101C600000000000506F727420257520656E756D40
:101C70006572617465206661696C0D0A0000000080
:101C80004661696C656420746F20656E61626C6585
:101C900020706F72742025750D0A00004661696C12
:101CA000656420746F206372656174652068756275
:101CB000206D710D0A0000004661696C6564207436
:101CC0006F2063726561746520627573206D757431
:101CD00065780D0A00000000757362685F687562C0
:101CE000257500004661696C656420746F2063721D
:101CF0006561746520687562207468726561640D41
:101D00000A000000687562006572726F722D737050
:101D1000656564006C6F772D737065656400000005
:101D200066756C6C2D737065656400006869676822
:101D30002D73706565640000776972656C657373F7
:101D40002D7370656564000073757065722D737016
:101D5000656564007375706572706C75732D737052
:101D600065656400041D586099D859604DD6596066
:101D7000081D5860141D5860201D58602C1D5860A7
:101D8000381D5860481D5860541D58601B5B333126
:101D90006D5B452F757362685F6D73635D20000036
:101DA000636277207472616E736665722065727209
:101DB0006F723A2025640D0A000000006D736320E5
:101DC00064617461207472616E73666572206572FD
:101DD000726F723A2025640D0A0000006373772049
:101DE0007472616E73666572206572726F723A20EA
:101DF00025640D0A00000000637377207369676E25
:101E00006174757265206572726F720D0A00000050
:101E100063737720625374617475732025640D0AAF
:101E2000000000001B5B33336D5B572F75736268D6
:101E30005F6D73635D200000446576696365206EA5
:101E40006F742072656164792C20747279206167E7
:101E500061696E2E2E2E0D0A000000004661696C2D
:101E600020746F20736373695F74657374756E6932
:101E70007472656164790D0A000000004661696C46
:101E800020746F20736373695F696E71756972790D
:101E90000D0A00004661696C20746F2073637369DA
:101EA0005F72656164636170616369747931300D7B
:101EB0000A0000001B5B33326D5B492F757362684B
:101EC0005F6D73635D2000004361706163697479C5
:101ED00020696E666F3A0D0A00000000426C6F6365
:101EE0006B206E756D3A25642C626C6F636B20738A
:101EF000697A653A25640D0A00000000496E766132
:101F00006C696420626C6F636B2073697A650D0A7B
:101F1000000000004661696C20746F20616C6C6F7A
:101F200063206D73635F636C6173730D0A0000005F
:101F300044657669636520646F6573206E6F7420F5
:101F4000737570706F7274206D756C7469706C65E8
:101F5000204C554E730D0A00476574206D61782042
:101F60004C554E3A25750D0A00000000257320756A
:101F700073625F6D6F646573776974636820656E03
:101F800061626C650D0A00002F6465762F7364250D
:101F9000630000005265676973746572204D534396
:101FA00020436C6173733A25730D0A00556E726598
:101FB000676973746572204D534320436C6173737A
:101FC0003A25730D0A0000006D736300C81F586046
:101FD0002DED59605DF159601B5B33326D5B492F0C
:101FE000757362685F766964656F5D20000000004C
:101FF0004F70656E20766964656F20616E64207332
:10200000656C65637420666F726D61746964783A9B
:1020100025752C206672616D656964783A25752C8A
:1020200020616C7473657474696E673A25750D0A66
:10203000000000001B5B33316D5B452F75736268D8
:102040005F766964656F5D20000000004661696C21
:1020500020746F206F70656E20766964656F2069EB
:102060006E20737465702025750D0A00436C6F73C4
:102070006520766964656F206465766963650D0A1D
:102080000000000062756C6B0000000069736F0057
:102090003D3D3D3D3D3D3D3D3D3D3D3D3D20566948
:1020A00064656F2064657669636520696E666F722A
:1020B0006D6174696F6E203D3D3D3D3D3D3D3D3D53
:1020C0003D3D3D3D3D3D3D3D3D3D0D0A0000000097
:1020D0006263645644433A253034780D0A000000A8
:1020E0004E756D206F6620616C7473657474696ED3
:1020F00067733A257520282573206D6F6465290D57
:102100000A000000496E676F726520616C74736528
:102110007474696E6720300D0A000000416C74739E
:10212000657474696E673A25752C2045703D2530BD
:10213000327820417474723D25303275204D7073B1
:102140003D256420496E74657276616C3D253032A0
:1021500075204D756C743D253032750D0A000000F8
:10216000624E756D466F726D6174733A25750D0A16
:10217000000000002020466F726D6174496E646536
:10218000783A25750D0A00002020466F726D617443
:10219000547970653A25730D0A0000002020624EC4
:1021A000756D4672616D65733A25750D0A00000004
:1021B00020205265736F6C7574696F6E3A0D0A005A
:1021C0002020202020204672616D65496E6465786C
:1021D0003A25750D0A000000202020202020775786
:1021E000696474683A2025642C20774865696768BB
:1021F000743A2025642C206670733A2025640D0AF9
:10220000000000004661696C20746F20636C6F737E
:102210006520766964656F206465766963650D0A7B
:10222000000000002F6465762F766964656F256471
:102230000000000052656769737465722056696416
:10224000656F20436C6173733A25730D0A000000BB
:102250004661696C20746F20616C6C6F63207669D5
:1022600064656F5F636C6173730D0A00556E726510
:1022700067697374657220566964656F20436C6189
:1022800073733A25730D0A00766964656F5F737422
:102290007265616D696E6700766964656F5F63740E
:1022A000726C0000756E636F6D7072657373656438
:1022B00000000000A42258608412586098225860E0
:1022C000D1005A6015035A608822586001F25960A3
:1022D00005F259601B5B33326D5B492F7573626881
:1022E0005F636F72655D2000446576696365206F8A
:1022F0006E204275732025752C2048756220257547
:102300002C20506F727420257520646973636F6E82
:102310006E65637465640D0A000000001B5B333159
:102320006D5B452F757362685F636F72655D20003A
:102330006C69627261726965735C636F6D706F6EF8
:10234000656E74735C4368657272795553422D31C2
:102350002E362E305C636F72655C757362685F63E6
:102360006F72652E630000006275736964203C2003
:10237000434F4E4649475F555342484F53545F4D74
:1023800041585F4255530000415353455254204633
:1023900041494C205B25735D20402025733A25641C
:1023A0000D0A0000627573206F766572666C6F7738
:1023B0000D0A0D0A000000001B5B33336D5B572FC5
:1023C000757362685F636F72655D2000436F6E7442
:1023D000726F6C207472616E7366657220666169DB
:1023E0006C65642C206572726F72636F6465202562
:1023F000642C207265747279696E672E2E2E0D0A18
:10240000000000004E6F7420737065636966696533
:1024100064204D616E75666163747572657200004B
:102420004E6F7420737065636966696564205072CD
:102430006F647563740000002F3A2020427573208A
:10244000253032752E506F727420313A20446576F3
:102450002025752C20436C6173733D726F6F745F20
:102460006875622C204472697665723D6863642CDD
:102470002025754D0D0A00004275732025303375F7
:102480002044657669636520253033753A204944D8
:1024900020253034783A2530347820257320257370
:1024A00020726F6F74206875620D0A004368657250
:1024B00072792D456D6265646465640042757320B0
:1024C0002530337520446576696365202530337582
:1024D0003A20494420253034783A25303478202574
:1024E000732025730D0A00004465766963652044F6
:1024F000657363726970746F723A0D0A00000000B0
:102500002020624C656E6774683A2030782530323E
:102510007820202020202020202020200D0A0000CC
:1025200020206244657363726970746F72547970AD
:10253000653A203078253032782020200D0A0000BE
:1025400020206263645553423A2030782530347835
:102550002020202020202020202020200D0A0000E4
:10256000202062446576696365436C6173733A2029
:102570003078253032782020202020200D0A0000DD
:10258000202062446576696365537562436C6173AC
:10259000733A203078253032782020200D0A000050
:1025A00020206244657669636550726F746F636F53
:1025B0006C3A203078253032782020200D0A000037
:1025C0002020624D61785061636B657453697A6550
:1025D000303A203078253032782020200D0A000053
:1025E0002020696456656E646F723A203078253019
:1025F0003478202020202020202020200D0A0000D8
:102600002020696450726F647563743A20307825B5
:102610003034782020202020202020200D0A0000A7
:1026200020206263644465766963653A20307825CA
:102630003034782020202020202020200D0A000087
:102640002020694D616E7566616374757265723ABA
:102650002030782530327820202020200D0A0000FC
:1026600020206950726F647563743A203078253089
:102670003278202020202020202020200D0A000059
:1026800020206953657269616C4E756D6265723A9E
:102690002030782530327820202020200D0A0000BC
:1026A0002020624E756D436F6E6669677572617446
:1026B000696F6E733A203078253032780D0A000049
:1026C0002020436F6E66696720446573637269708A
:1026D000746F723A0D0A000020202020624C656E53
:1026E0006774683A20307825303278202020202006
:1026F00020202020202020200D0A00002020202043
:102700006244657363726970746F72547970653A6C
:102710002030782530327820202020200D0A00003B
:102720002020202077546F74616C4C656E6774684C
:102730003A20307825303478202020202020202096
:102740000D0A000020202020624E756D496E7465D0
:102750007266616365733A203078253032782020C4
:10276000202020200D0A00002020202062436F6ED0
:1027700066696775726174696F6E56616C75653AEA
:1027800020307825303278200D0A000020202020CB
:1027900069436F6E66696775726174696F6E3A201E
:1027A0003078253032782020202020200D0A0000AB
:1027B00020202020626D41747472696275746573A3
:1027C0003A20307825303278202020202020202008
:1027D0000D0A000020202020624D6178506F77653F
:1027E000723A203078253032782020202020202096
:1027F000202020200D0A000020202020496E746532
:1028000072666163652044657363726970746F7288
:102810003A0D0A00202020202020624C656E67744B
:10282000683A20307825303278202020202020205F
:1028300020202020200D0A0020202020202062447B
:10284000657363726970746F72547970653A203081
:102850007825303278202020200D0A0020202020EA
:10286000202062496E746572666163654E756D62A3
:1028700065723A203078253032782020200D0A0009
:1028800020202020202062416C7465726E61746586
:1028900053657474696E673A203078253032782039
:1028A000200D0A00202020202020624E756D456EEC
:1028B00064706F696E74733A2030782530327820F6
:1028C00020202020200D0A002020202020206249E6
:1028D0006E74657266616365436C6173733A203030
:1028E0007825303278202020200D0A00202020205A
:1028F000202062496E746572666163655375624338
:102900006C6173733A20307825303278200D0A00DC
:1029100020202020202062496E7465726661636504
:1029200050726F746F636F6C3A2030782530327854
:10293000200D0A0020202020202069496E74657235
:10294000666163653A203078253032782020202077
:1029500020202020200D0A00202020202020456E4D
:1029600064706F696E742044657363726970746F0C
:10297000723A0D0A00000000202020202020202094
:10298000624C656E6774683A203078253032782062
:102990002020202020202020200D0A002020202080
:1029A000202020206244657363726970746F7254D2
:1029B0007970653A2030782530327820200D0A0071
:1029C000202020202020202062456E64706F696ED8
:1029D00074416464726573733A20307825303278BC
:1029E000200D0A002020202020202020626D41742C
:1029F00074726962757465733A2030782530327864
:102A000020202020200D0A0020202020202020200F
:102A1000774D61785061636B657453697A653A20CC
:102A20003078253034782020200D0A002020202006
:102A30002020202062496E74657276616C3A2030E5
:102A4000782530327820202020202020200D0A00F8
:102A500020202020000000007C5F5F20506F7274F7
:102A60002025753A204465762025752C204966205E
:102A700025752C20436C6173734472697665723DD1
:102A800025732C2025754D0D0A0000007C5F5F200A
:102A9000506F72742025753A204465762025752C78
:102AA000204966203020436C6173734472697665F7
:102AB000723D6E6F6E652C2025754D0D0A0000006D
:102AC0004C6973742055534220446576696365737D
:102AD0000D0A55736167653A206C73757362205BEC
:102AE0006F7074696F6E735D2E2E2E0D0A0D0A2D98
:102AF000762C202D2D766572626F73650D0A20206D
:102B000020202D20696E6372656173652076657281
:102B1000626F73697479202873686F7720646573B6
:102B200063726970746F7273290D0A2D73205B5B79
:102B30006275735D3A5D5B6465765F616464725D66
:102B40000D0A202020202D2073686F77206F6E6C77
:102B5000792064657669636573207769746820738A
:102B6000706563696669656420646576696365207C
:102B7000616E642F6F720D0A202020202020627564
:102B800073206E756D626572732028696E206465AE
:102B900063696D616C290D0A2D642076656E646F22
:102BA000723A5B70726F647563745D0D0A20202049
:102BB000202D2073686F77206F6E6C7920646576A6
:102BC0006963657320776974682074686520737021
:102BD000656369666965642076656E646F722061FD
:102BE0006E640D0A20202020202070726F647563AF
:102BF00074204944206E756D626572732028696E79
:102C00002068657861646563696D616C290D0A2DC2
:102C1000742C202D2D747265650D0A202020202D26
:102C20002064756D702074686520706879736963BD
:102C3000616C20555342206465766963652068693C
:102C400065726172636879206173206120747265B6
:102C5000650D0A2D562C202D2D76657273696F6EC9
:102C60000D0A202020202D2073686F772076657252
:102C700073696F6E206F6620746865206368657283
:102C800072797573620D0A2D682C202D2D68656C84
:102C9000700D0A202020202D2073686F7720757317
:102CA00061676520616E642068656C7020696E667E
:102CB0006F726D6174696F6E0D0A00002D2D76655F
:102CC0007273696F6E00000076312E352E3300006E
:102CD0004368657272795553422076657273696FE5
:102CE0006E2025730D0A00002D2D68656C700000A4
:102CF0002D2D766572626F73650000002D2D747244
:102D0000656500004661696C656420746F206765C5
:102D100074206465766963652064657363726970A5
:102D2000746F722C6572726F72636F64653A25649A
:102D30000D0A0000756E65787065637465642064C3
:102D400065766963652064657363726970746F7218
:102D5000203078253032780D0A00000050617273FF
:102D60006520646576696365206465736372697064
:102D7000746F72206661696C0D0A00004661696CAF
:102D8000656420746F207365742064657661646483
:102D9000722C6572726F72636F64653A25640D0AF6
:102DA000000000004661696C656420746F206765EF
:102DB000742066756C6C2064657669636520646553
:102DC0007363726970746F722C6572726F72636F65
:102DD00064653A25640D0A004E657720646576695E
:102DE000636520666F756E642C696456656E646FEA
:102DF000723A253034782C696450726F647563744C
:102E00003A253034782C6263644465766963653AA8
:102E1000253034780D0A00005468652064657669B1
:102E200063652068617320256420624E756D436F71
:102E30006E66696775726174696F6E730D0A000062
:102E40004661696C656420746F2067657420636FE8
:102E50006E6669672064657363726970746F722C43
:102E60006572726F72636F64653A25640D0A0000C3
:102E7000696E76616C696420636F6E666967206253
:102E80004C656E677468203078253032780D0A0002
:102E9000756E657870656374656420636F6E6669CE
:102EA000672064657363726970746F72203078256F
:102EB0003032780D0A000000506172736520636F34
:102EC0006E6669672064657363726970746F7220DF
:102ED0006661696C0D0A000077546F74616C4C6513
:102EE0006E677468202564206973206F766572664A
:102EF0006C6F772C2064656661756C742069732033
:102F000025640D0A000000004661696C6564207448
:102F10006F206765742066756C6C20636F6E6669E0
:102F2000672064657363726970746F722C65727266
:102F30006F72636F64653A25640D0A00496E7465AB
:102F40007266616365206E756D202564206F7665FD
:102F500072666C6F770D0A00456E64706F696E74EF
:102F6000206E756D202564206F766572666C6F77B4
:102F70000D0A0000496E7465726661636520616CBC
:102F80007473657474696E67206E756D2025642096
:102F90006F766572666C6F770D0A00005468652065
:102FA0006465766963652068617320256420696EB5
:102FB00074657266616365730D0A00004E6F206D63
:102FC000656D6F727920746F20616C6C6F63206621
:102FD0006F72207261775F636F6E6669675F6465A9
:102FE00073630D0A000000004661696C656420741B
:102FF0006F2073657420636F6E66696775726174A4
:10300000696F6E2C6572726F72636F64653A2564C6
:103010000D0A0000456E756D65726174696F6E20F2
:10302000737563636573732C207374617274206CA1
:103030006F6164696E6720636C6173732064726989
:103040007665720D0A000000696E74665F646573D0
:10305000632D3E62496E746572666163654E756D7F
:10306000626572203D3D206900000000496E746574
:103070007266616365206E756D626572206D69733D
:103080006D617463682C20646F206E6F742073759B
:1030900070706F7274206E6F6E2D7374616E6461E8
:1030A0007264206465766963650D0A0D0A0000008C
:1030B000446F206E6F7420737570706F727420434C
:1030C0006C6173733A3078253032782C20537562F6
:1030D000636C6173733A3078253032782C205072EB
:1030E0006F746F636C3A307825303278206F6E20C1
:1030F000696E746572666163652025750D0A00004E
:103100004C6F6164696E6720257320636C61737313
:1031100020647269766572206F6E20696E746572C4
:10312000666163652025750D0A0000004661696CC3
:10313000656420746F20616C6C6F636174652064DA
:103140006576616464722C6572726F72636F646518
:103150003A25640D0A000000554E4B4E4F574E0065
:10316000312E3100322E3000322E3500332E300019
:103170000800000040000000400000004000000087
:1031800000020000000200005831586060315860B1
:103190006031586064315860683158606C315860F3
:1031A0006C31586000000C000C00E001E001881355
:1031B000102700001B5B33316D5B452F5553425D7B
:1031C0002000000043726561746520746872656157
:1031D00064202573206661696C65640D0A00000037
:1031E000757362685F73656D00000000437265610E
:1031F00074652073656D6170686F726520666169C2
:103200006C65640D0A000000757362685F6D75740B
:1032100065780000437265617465206D757465782A
:10322000206661696C65640D0A0000007573626850
:103230005F6D7100437265617465207573625F6FC5
:1032400073616C5F74696D6572206661696C656439
:103250000D0A00004372656174652074696D6572C2
:10326000206661696C65640D0A000000706C656120
:10327000736520696E70757420636F727265637414
:1032800020636F6D6D616E643A20757362685F696B
:103290006E6974203C62757369643E203C72656798
:1032A0005F626173653E0D0A00000000706C65612D
:1032B000736520696E70757420636F7272656374D4
:1032C00020636F6D6D616E643A20757362685F6430
:1032D00065696E6974203C62757369643E0D0A000D
:1032E0006C73207573622064657669636573000092
:1032F0006C737573620000006465696E6974207593
:10330000736220686F737400757362685F646569C7
:103310006E697400696E69742075736220686F73DA
:1033200074000000757362685F696E697400000064
:103330002F000000656C6D00756469736B3A202581
:1033400073206D6F756E7420737563636573736638
:10335000756C6C790A000000756469736B3A2025FE
:1033600073206D6F756E74206661696C65642C20C6
:10337000726574203D2025640A0000006465762093
:10338000213D2052545F4E554C4C00006D7363201C
:1033900067657420616C69676E206275662066617E
:1033A000696C65640A000000757362206D61737357
:1033B0005F73746F72616765207265616420666116
:1033C000696C65640A000000757362206D61737337
:1033D0005F73746F726167652077726974652066C8
:1033E00061696C65640A0000757362685F6D736380
:1033F0000000000072745F756469736B5F636F6EC9
:1034000074726F6C00000000970000000300000061
:10341000010000001F02100000030003000300036E
:103420000003000300030003000000000000000090
:1034300000000000000000001F0200010004000066
:10344000000000000000000000000000000000007C
:10345000636872795F6D656D706F6F6C685F7365BF
:103460006D000000E52E5A60212F5A60FD2E5A6033
:1034700000002A4200001D4400000000000000007F
:10348000000000000000000000000000000000003C
:103490000000000001001000050000000401000011
:1034A000030000000100000007000000050000000C
:1034B0000600000000000000020000000000000004
:1034C0000A000000090000000500000006000000DE
:1034D0000A0000000D000000010000000B000000C9
:1034E0000D000000050000000400000001000000C5
:1034F00001000000000000000000000000000000CB
:1035000000000000010000000000803F0000C03FFC
:10351000000000400000104000004040000010404B
:103520000000803F0000C03F00000040000010404D
:10353000000010400000404000004040000000003B
:103540000000000001000000010000000200000077
:1035500002000000436F756C64206E6F7420666912
:103560006E64206D6174636865642068772E0A005C
:10357000FF03000000000000E5050000FF0300005D
:1035800058FFFFFFB7FDFFFFFF03000085070000A6
:10359000000000000036F4FF00E2050000F6F0FF36
:1035A000FF0000000000000066010000FF000000B6
:1035B000A8FFFFFF4AFFFFFFFF000000C40100005B
:1035C00000000000004DFFFF00870000001EFFFF0D
:1035D000FF0000000000000092010000FF0000005A
:1035E000D0FFFFFF89FFFFFFFF000000D9010000AF
:1035F000000000000037FFFF805300008013FFFF32
:10360000AC04000000000000BC060000AC04000098
:1036100040FFFFFF64FDFFFFAC04000098080000BE
:1036200000000000005DF1FF008D050000A5EDFF2A
:1036300040000000AC03000040000000C003000098
:10364000290100000000000097010000290100008E
:103650009CFFFFFF31FFFFFF290100000202000075
:1036600000000000F021FFFFF086000070ECFEFF7C
:1036700010000000EB00000010000000EB00000054
:103680002901000000000000C9010000290100001C
:10369000CAFFFFFF78FFFFFF290100001B020000A7
:1036A00000000000F008FFFF704C0000F0DFFEFF9C
:1036B00010000000EB00000010000000EB00000014
:1036C000646973706C617920706F736974696F6E6F
:1036D0002065786563636473206D6178696D756DCD
:1036E000210A000063757272656E74206D6F6465E7
:1036F000206973206E6F7420737570706F727465BB
:10370000640A00004E6F7420737570706F727420BD
:10371000646973706C61792073697A65203A3078D6
:103720002578202E0A00000040010000E001000082
:10373000E001000080020000D00200002003000031
:103740000004000000040000800700008007000063
:10375000E00100002003000060030000E001000021
:10376000E0010000E001000058020000000300003A
:1037700038040000380400000001000103020003C7
:10378000000203030000010301000200030302031F
:1037900040010000300200000A0200002003000087
:1037A0005A030000A003000040050000400500008F
:1037B000720600009808000000000000F6010000FA
:1037C000F401000090020000E0020000720300001B
:1037D000A0040000180400006E050000D8070000D7
:1037E000400100000A020000F6010000F0020000A3
:1037F0001E03000075030000B4040000A0040000D4
:103800009605000004080000E50100005C030000CC
:10381000800300000D0200000D0200000D020000F8
:103820008402000026030000EE0200006504000090
:10383000E10100003903000070030000EA0100000C
:10384000E9010000F601000064020000030300002B
:10385000D50200003C040000E20100004903000022
:103860007A030000EC010000EF010000F901000004
:103870007002000009030000DA02000041040000A9
:1038800040010000E0010000E001000080020000B3
:10389000D00200002003000000040000000400002B
:1038A0000005000080070000E00100002003000088
:1038B00060030000E0010000E0010000E001000002
:1038C0005802000000030000D0020000380400008D
:1038D000737461727420746F20696E6974204C4334
:1038E000440A0000656E6420696E6974204C43448C
:1038F0000A000000060000000700000005000000AC
:1039000005000000050000000500000005000000A3
:103910000500000005000000050000000500000093
:103920000500000005000000060000000500000082
:10393000060000002573206F7574206F66206D658A
:103940006D6F72792E0A0000566976616E7465207B
:1039500044432076657273696F6E2025642E25645A
:103960002E25640A00000000566976616E74652099
:1039700044432068617264776172653A0A636869DA
:10398000702069643A202020202020202020202040
:1039900020203078253038780A6368697020726595
:1039A000766973696F6E3A202020202020203078BD
:1039B000253038780A636869702070617463682004
:1039C0007265766973696F6E3A2030782530387881
:1039D0000A6368697020696E666F3A202020202093
:1039E0002020202020203078253038780A70726F0F
:1039F000647563742069643A2020202020202020F0
:103A000020203078253038780A65636F2069643A61
:103A1000202020202020202020202020202030783E
:103A2000253038780A637573746F6D657220696428
:103A30003A2020202020202020203078253038787F
:103A40000A72656C6561736520646174653A202053
:103A50002020202020203078253038780A72656CAC
:103A6000656173652074696D653A202020202020EF
:103A700020203078253038780A0000006465765FB1
:103A8000696F63746C3A20696E76616C6964206951
:103A90006E746572666163650A0000006465765F36
:103AA000696E697400000000496E76616C6964207B
:103AB000417267756D656E743A204443207768697A
:103AC000636820646F6573206E6F74207375707007
:103AD0006F7274204D4D552073686F756C64207340
:103AE000657420506F6F6C20746F20676376504F41
:103AF0004F4C5F434F4E544947554F55532120007B
:103B0000496E76616C696420417267756D656E748B
:103B10003A2046656174757265733D257020696E43
:103B20002025730A00000000766976206463206413
:103B3000657669636520696E697469616C20666188
:103B4000696C65642E0A00007669762064632070D3
:103B50006C6174666F726D20696E697469616C2046
:103B60006661696C65642E0A000000007669762043
:103B700064632071756572792063686970696E6627
:103B80006F206661696C65642E0A000054686520C8
:103B90006C61796572206964203D25642069732019
:103BA0006F7574206F662072616E67650A00000091
:103BB000496E76616C696420617267756D656E74BB
:103BC0002C20646973706C61792069642065786366
:103BD0006565647320746865206E756D626572201A
:103BE0006F6620646973706C61792E0A00000000B2
:103BF000496E76616C696420617267756D656E747B
:103C00002C207A6F726465722065786365656473D1
:103C10002074686520636F756E74206F66206C6118
:103C20007965722E0A000000496E76616C69642025
:103C3000617267756D656E742C20646973706C6158
:103C400079206D61736B206578636565647320749A
:103C500068652072616E6765206F662064697370A5
:103C60006C61792E0A0000007669765F7175657265
:103C7000795F63686970696E666F0000496C6C6596
:103C800067616C20636F6D6D616E643D25640A0031
:103C9000666E6900666E692B000000006E616E0042
:103CA000666E692D00000000296C6C756E2800009E
:103CB000296C696E28000000000000000000F03F41
:103CC00000000000000024400000000000005940F7
:103CD0000000000000408F40000000000088C3404A
:103CE00000000000006AF8400000000080842E41BF
:103CF00000000000D01263410000000084D797410B
:103D00000000000065CDCD41000000205FA0024210
:103D1000000000E876483742000000A2941A6D4285
:103D2000000040E59C30A2420000901EC4BCD64278
:103D300000003426F56B0C430080E03779C3414323
:103D400000A0D8855734764366696C6520213D20F4
:103D500052545F4E554C4C006465765F6964202177
:103D60003D2052545F4E554C4C00000066696C6516
:103D70002D3E766E6F64652D3E7265665F636F756E
:103D80006E74203E20300000726F6F745F64697241
:103D9000656E7420213D2052545F4E554C4C0000FE
:103DA000696E666F726D6174696F6E20213D20527D
:103DB000545F4E554C4C00007761726E696E673AE5
:103DC00020546865726520617265206E65776C7934
:103DD000206164646564206465766963657320743A
:103DE00068617420617265206E6F742064697370FD
:103DF0006C6179656421000064657666730000007B
:103E00006466735F6465766963655F66735F676543
:103E10007464656E747300006466735F64657669CC
:103E200063655F66735F6F70656E00006466735FE5
:103E30006465766963655F66735F636C6F73650065
:103E40006466735F6465766963655F66735F7772E6
:103E5000697465006466735F6465766963655F664F
:103E6000735F7265616400006466735F64657669A0
:103E700063655F66735F696F63746C00CDB05A6091
:103E800031B05A600DAF5A6069AF5A60CDAF5A6019
:103E90000000000000000000F9B15A6041B35A6010
:103EA000F83D5860000000007C3E5860F1AE5A605A
:103EB0000000000000000000F5AE5A6009AF5A6033
:103EC000C1B25A60000000005468652073656374D5
:103ED0006F722073697A65206F6620646576696306
:103EE000652069732067726561746572207468610A
:103EF0006E2074686520736563746F722073697ACD
:103F000065206F66204641542E0A000025643A2F32
:103F100000000000303A000066617420213D20520C
:103F2000545F4E554C4C0000736F7272792C2074A4
:103F300068657265206973206E6F207370616365B8
:103F400020746F20646F206D6B667321200A00005F
:103F5000666F726D6174206572726F722C2072656B
:103F600073756C743D25640A00000000667320219F
:103F70003D2052545F4E554C4C0000006275662047
:103F8000213D2052545F4E554C4C000025643A258B
:103F90007300000064697220213D2052545F4E5529
:103FA0004C4C0000666420213D2052545F4E554C1D
:103FB0004C000000666174256400000000000000F1
:103FC000FBFFFFFFFBFFFFFFFBFFFFFFFEFFFFFF0E
:103FD000FEFFFFFFEAFFFFFFE2FFFFFFEFFFFFFF34
:103FE000EFFFFFFFE2FFFFFFFFFFFFFFFFFFFFFF0E
:103FF000FEFFFFFFEAFFFFFF6466735F656C6D5FA6
:1040000067657464656E7473000000006466735FB6
:10401000656C6D5F6C7365656B0000006466735F53
:10402000656C6D5F666C7573680000006466735F35
:10403000656C6D5F77726974650000006466735F1C
:10404000656C6D5F72656164000000006466735F9B
:10405000656C6D5F696F63746C0000006466735F0C
:10406000656C6D5F636C6F73650000006466735F01
:10407000656C6D5F6F70656E000000006466735F55
:10408000656C6D5F73746174667300006466735F62
:10409000656C6D5F756E6D6F756E7400343358604E
:1040A00000000000C440586055B35A6065B45A60BF
:1040B00009B55A6069B65A60C9BB5A6095BC5A6066
:1040C0002DBC5A60F9B65A60C9B85A60B9BD5A6079
:1040D00059B95A60BDB95A6029BA5A6061BA5A6072
:1040E000E9BA5A60000000004641543332202020D3
:1040F000000000002A3A3C3E7C223F7F0000000086
:104100002B2C3B3D5B5D00004E4F204E414D45202A
:104110002020204641543332202020004E4F204E94
:10412000414D4520202020464154202020202000C1
:10413000EBFE904D53444F53352E3000809A45414D
:104140008E418F804545454949498E8F9092924FC7
:10415000994F555559999A9B9C9D9E9F41494F5502
:10416000A5A5A6A7A8A9AAABACADAEAFB0B1B2B396
:10417000B4B5B6B7B8B9BABBBCBDBEBFC0C1C2C387
:10418000C4C5C6C7C8C9CACBCCCDCECFD0D1D2D377
:10419000D4D5D6D7D8D9DADBDCDDDEDFE0E1E2E367
:1041A000E4E5E6E7E8E9EAEBECEDEEEFF0F1F2F357
:1041B000F4F5F6F7F8F9FAFBFCFDFEFF010305073D
:1041C000090E10121416181C1E0000000700000033
:1041D00000000000000000000000000061001A0361
:1041E000E0001703F8000703FF0001007801000159
:1041F000300132010601390110014A012E01790115
:10420000060180014D004302810182018201840187
:10421000840186018701870189018A018B018B0155
:104220008D018E018F019001910191019301940103
:10423000F60196019701980198013D029B019C01AE
:104240009D0120029F01A001A001A201A201A401E1
:10425000A401A601A701A701A901AA01AB01AC0114
:10426000AC01AE01AF01AF01B101B201B301B301C5
:10427000B501B501B701B801B801BA01BB01BC0174
:10428000BC01BE01F701C001C101C201C301C401EB
:10429000C501C401C701C801C701CA01CB01CA01D8
:1042A000CD011001DD0101008E01DE011201F301DB
:1042B0000300F101F401F401F801280122021201C6
:1042C0003A020900652C3B023B023D02662C3F028C
:1042D00040024102410246020A01530240008101AC
:1042E0008601550289018A0158028F015A02900104
:1042F0005C025D025E025F02930161026202940150
:104300006402650266026702970196016A02622CE6
:104310006C026D026E029C01700271029D017302BB
:1043200074029F0176027702780279027A027B0298
:104330007C02642C7E027F02A60181028202A90116
:104340008402850286028702AE014402B101B201F5
:1043500045028D028E028F0290029102B7017B030B
:104360000300FD03FE03FF03AC0304008603880380
:1043700089038A03B1031103C2030200A303A30349
:10438000C4030803CC0303008C038E038F03D803FC
:104390001801F2030A00F903F303F403F503F6032B
:1043A000F703F703F903FA03FA0330042003500478
:1043B0001007600422018A043601C1040E01CF04F3
:1043C0000100C004D004440161052604000000007F
:1043D0007D1D0100632C001E9601A01E5A01001FC6
:1043E0000806101F0606201F0806301F0806401F7B
:1043F0000606511F0700591F521F5B1F541F5D1FE8
:10440000561F5F1F601F0806701F0E00BA1FBB1FDC
:10441000C81FC91FCA1FCB1FDA1FDB1FF81FF91FD8
:10442000EA1FEB1FFA1FFB1F801F0806901F0806DC
:10443000A01F0806B01F0400B81FB91FB21FBC1F81
:10444000CC1F0100C31FD01F0206E01F0206E51F9C
:104450000100EC1FF31F0100FC1F4E21010032215F
:1044600070211002842101008321D0241A05302CF0
:104470002F04602C0201672C0601752C0201802C90
:104480006401002D260841FF1A030000C700FC004C
:10449000E900E200E400E000E500E700EA00EB00EC
:1044A000E800EF00EE00EC00C400C500C900E60023
:1044B000C600F400F600F200FB00F900FF00D60091
:1044C000DC00A200A300A500A7209201E100ED00FE
:1044D000F300FA00F100D100AA00BA00BF001023D7
:1044E000AC00BD00BC00A100AB00BB009125922533
:1044F000932502252425612562255625552563250A
:10450000512557255D255C255B251025142534256F
:104510002C251C2500253C255E255F255A25542584
:1045200069256625602550256C2567256825642545
:10453000652559255825522553256B256A251825AB
:104540000C25882584258C2590258025B103DF0046
:104550009303C003A303C303B500C403A6039803D6
:10456000A903B4031E22C603B50329226122B100A8
:104570006522642220232123F7004822B00019225B
:10458000B7001A227F20B200A025A0006466732025
:10459000616C726561647920696E69742E0A00002D
:1045A00066736C6F636B000066646C6F636B000016
:1045B0002F646576000000001B5B33316D5B452F77
:1045C0004446535D20000000444653206664206E3C
:1045D0006577206973206661696C65642120436F8B
:1045E000756C64206E6F7420666F756E6420616EEA
:1045F00020656D70747920666420656E7472792E02
:104600000000000066647420213D204E554C4C0093
:1046100066645F736C6F742D3E6D61676963203DE6
:104620003D204446535F46445F4D414749430000A7
:1046300066696C656E616D6520213D204E554C4C60
:104640000000000025732F257300000066642074AD
:1046500079706520202020726566206D616769632E
:104660002020706174680A002D2D202D2D2D2D2DF8
:104670002D20202D2D2D202D2D2D2D2D202D2D2D9E
:104680002D2D2D0A000000002532642000000000BE
:1046900064697200252D372E3773200066696C65BA
:1046A00000000000736F636B6574000075736572C2
:1046B000000000006465766963650000252D382ED2
:1046C0003873200025336420000000002530347842
:1046D000202000006466735F6E6F726D616C697A92
:1046E000655F7061746800006664745F66645F7221
:1046F000656C6561736500006466735F66696C650F
:104700005F6C6F636B0000006466735F6C6F636B5C
:10471000000000006466735F6D6772006F7574203F
:104720006F66206D656D6F72790A00005265616475
:10473000202573206661696C65640A00577269748C
:1047400065202573206661696C65640A00000000BD
:1047500057726974652066696C65206461746120B4
:104760006661696C65642C206572726E6F3D2564AC
:104770000A00000063616E27742066696E64206D14
:104780006F756E7465642066696C657379737465A2
:104790006D206F6E207468697320706174683A25AB
:1047A000730000007468652066696C6573797374C2
:1047B000656D206469646E277420696D706C656D29
:1047C000656E7420746869732066756E6374696FB2
:1047D0006E0000006F70656E202573206661696C45
:1047E00065640A002E2E00006F7574206F66206DC0
:1047F000656D6F7279210A006F70656E2066696C55
:10480000653A202573206661696C65640A000000C2
:104810004469726563746F72792025733A0A0000E7
:10482000252D3230730000003C4449523E00000008
:10483000252D3235730A0000252D32356C750A009E
:104840004241442066696C653A2025730A000000E5
:104850004E6F2073756368206469726563746F724C
:10486000790A00004F70656E202573206661696CBF
:1048700065640A00636F7079206661696C65642CF9
:10488000206261642025730A0000000063702066C6
:1048900061696C642C2063702064697220746F20DD
:1048A00066696C65206973206E6F74207065726D27
:1048B0006974746564210A004B4200004D42000097
:1048C000474200005468657265206973206E6F204E
:1048D000737061636520746F2072656769737465B6
:1048E0007220746869732066696C652073797374CB
:1048F000656D20282573292E000000007061746802
:10490000000000005468657265206973206E6F2096
:10491000737061636520746F206D6F756E742074A1
:104920006869732066696C652073797374656D209E
:10493000282573292E0000004465766963652028C8
:1049400025732920776173206E6F7420666F756EF2
:104950006400000046696C652073797374656D208E
:104960002825732920776173206E6F7420666F7518
:104970006E642E005468652066696C6520737973D7
:1049800074656D2028257329206D6B66732066750C
:104990006E6374696F6E20776173206E6F74206927
:1049A0006D706C656D656E74000000005468652064
:1049B00066756E6374696F6E206973206E6F742004
:1049C000696D706C656D656E7465642E0A0000001B
:1049D000737461746673206661696C65643A2065FE
:1049E00072726E6F3D25642E0A0000006469736B5D
:1049F00020667265653A2025642E25642025732083
:104A00005B20256420626C6F636B2C202564206220
:104A1000797465732070657220626C6F636B205DC2
:104A20000A000000B8485860BC485860C048586048
:104A30006466735F66696C6573797374656D5F6CCA
:104A40006F6F6B757000000072745F6F626A6563F0
:104A5000745F6765745F7479706528266465762D68
:104A60003E706172656E7429203D3D2052545F4F47
:104A7000626A6563745F436C6173735F44657669F2
:104A80006365000072745F6F626A6563745F697367
:104A90005F73797374656D6F626A656374282664E9
:104AA00065762D3E706172656E7429001B5B333133
:104AB0006D5B452F6B65726E656C2E646576696300
:104AC000655D2000546F20696E697469616C697A54
:104AD00065206465766963653A2573206661696C53
:104AE00065642E20546865206572726F7220636F52
:104AF0006465206973202564000000006465762DDC
:104B00003E7265665F636F756E7420213D203000D4
:104B100072745F6465766963655F7365745F7278EC
:104B20005F696E64696361746500000072745F643C
:104B300065766963655F636F6E74726F6C00000009
:104B400072745F6465766963655F77726974650026
:104B500072745F6465766963655F726561640000A5
:104B600072745F6465766963655F636C6F7365001B
:104B700072745F6465766963655F6F70656E00006F
:104B800072745F6465766963655F756E7265676987
:104B900073746572000000001B5B33336D5B572F2D
:104BA0004932435D20000000776169742061636BC6
:104BB0002074696D656F7574000000004E41434BB1
:104BC0003A2073656E64696E67206669727374203B
:104BD00061646472000000004E41434B3A207365EB
:104BE0006E64696E67207365636F6E6420616464D0
:104BF000720000001B5B33316D5B452F4932435D12
:104C0000200000004E41434B3A2073656E64696E8C
:104C10006720726570656174656420616464720008
:104C200041434B206F72204E41434B2074696D65A8
:104C30006F75742E0000000073656E6420627974D5
:104C400065733A206572726F72202564000000005F
:104C5000A92A5B6000000000000000006932635F69
:104C60006275735F6C6F636B000000001B5B333217
:104C70006D5B492F4932435D2000000049324320DB
:104C8000627573205B25735D207265676973746557
:104C90007265640049324320627573202573206E6B
:104CA0006F742065786973740000000049324320F6
:104CB000627573206F7065726174696F6E206E6FBC
:104CC0007420737570706F72746564006275732000
:104CD000213D2052545F4E554C4C000072745F6968
:104CE00032635F6D61737465725F72656376000035
:104CF00062756666657220213D2052545F4E554CA8
:104D00004C0000006932635F6275735F64657669A9
:104D100063655F72656164006932635F6275735FCA
:104D20006465766963655F77726974650000000089
:104D30006932635F6275735F6465766963655F633B
:104D40006F6E74726F6C000072745F6932635F62C1
:104D500075735F6465766963655F646576696365CD
:104D60005F696E6974000000636F6D706C657469D3
:104D70006F6E20213D2052545F4E554C4C00000078
:104D800046756E6374696F6E5B25735D3A2073635D
:104D9000686564756C6572206973206E6F7420613C
:104DA0007661696C61626C650A00000046756E632D
:104DB00074696F6E5B25735D3A20696E74657272FB
:104DC0007570742069732064697361626C65640A2C
:104DD0000000000046756E6374696F6E5B25735D3D
:104DE000207368616C6C206E6F742062652075732F
:104DF0006564206265666F726520736368656475BB
:104E00006C65722073746172740A000046756E637B
:104E100074696F6E5B25735D207368616C6C206EC6
:104E20006F74206265207573656420696E20495334
:104E3000520A000072745F6C6973745F6973656D08
:104E4000707479282628636F6D706C6574696F6E55
:104E50002D3E73757370656E6465645F6C69737401
:104E60002929000072745F636F6D706C6574696FDF
:104E70006E5F646F6E65000072745F636F6D706C5F
:104E80006574696F6E5F77616974000072745F6347
:104E90006F6D706C6574696F6E5F696E6974000028
:104EA00070696E20213D2052545F4E554C4C0000DD
:104EB00070696E205B6F7074696F6E5D204750493A
:104EC0004F0A000020202020206E756D3A202020FF
:104ED0002020206765742070696E206E756D626594
:104EE000722066726F6D20686172647761726520EE
:104EF00070696E0A0000000020202020206D6F6481
:104F0000653A20202020207365742070696E206D22
:104F10006F646520746F206F75747075742F696E7F
:104F20007075742F696E7075745F70756C6C7570C8
:104F30002F696E7075745F70756C6C646F776E2F0F
:104F40006F75747075745F6F640A000020202020F4
:104F50002020202020202020202020652E672E20A9
:104F60004D5348203E70696E206D6F646520475038
:104F7000494F206F75747075740A0000202020203E
:104F800020726561643A20202020207265616420CF
:104F900070696E206C6576656C206F662068617242
:104FA00064776172652070696E0A000020202020FD
:104FB0002020202020202020202020652E672E2049
:104FC0004D5348203E70696E2072656164204750E1
:104FD000494F0A00202020202077726974653A200A
:104FE00020202077726974652070696E206C657668
:104FF000656C28686967682F6C6F77206F72206F07
:105000006E2F6F66662920746F2068617264776105
:1050100072652070696E0A00202020202020202048
:1050200020202020202020652E672E204D53482050
:105030003E70696E207772697465204750494F2031
:10504000686967680A000000202020202068656CDD
:10505000703A2020202020746869732068656C7085
:10506000206C6973740A00004750494F20652E6711
:105070002E3A00005F68775F70696E2E6F70732044
:10508000213D2052545F4E554C4C00006E756D0012
:10509000506172616D6574657220696E76616C69CC
:1050A00064203A202573210A000000002573203A6D
:1050B0002025640A000000006D6F64650000000098
:1050C0006F75747075740000696E7075745F7075BB
:1050D0006C6C757000000000696E7075745F70759F
:1050E0006C6C646F776E00006F75747075745F6FB1
:1050F00064000000726561640000000070696E5B0E
:1051000025645D203D20686967680A0070696E5BF0
:1051100025645D203D206C6F770A0000777269740A
:105120006500000068696768000000006C6F770028
:105130006F66660072745F70696E5F676574000009
:1051400072745F70696E5F726561640072745F7023
:10515000696E5F77726974650000000072745F7039
:10516000696E5F6D6F6465005F70696E5F72656127
:10517000640000005F70696E5F777269746500009B
:105180005F70696E5F636F6E74726F6C0000000019
:1051900070696E205B6F7074696F6E5D0000000057
:1051A00070696E006661696C7572650070726F621D
:1051B0006500000070726F62652025732025730AF8
:1051C0000000000070776D2070726F6265203C6493
:1051D0006576696365206E616D653E202020202024
:1051E000202020202020202020202020202D207062
:1051F000726F62652070776D206279206E616D65D7
:105200000A000000506C65617365207573696E67F4
:10521000202770776D2070726F6265203C64657620
:10522000696365206E616D653E27206669727374DF
:105230002E0A0000656E61626C65000025732063B4
:1052400068616E6E656C20256420697320656E61EF
:10525000626C6564202573200A00000070776D2061
:10526000656E61626C65203C6368616E6E656C3E64
:10527000202020202020202020202020202020202E
:1052800020202020202D20656E61626C65207077C3
:105290006D206368616E6E656C0A0000202020201E
:1052A000652E672E204D5348203E70776D20656E29
:1052B00061626C65202031202020202020202020C9
:1052C00020202020202D2050574D5F4348312020A2
:1052D0006E6F6D616C0A000020202020652E672E05
:1052E000204D5348203E70776D20656E61626C657D
:1052F000202D312020202020202020202020202090
:10530000202D2050574D5F4348314E20636F6D7004
:105310006C656D656D746172790A00006469736112
:10532000626C650070776D2064697361626C6520E2
:105330003C6368616E6E656C3E202020202020203A
:10534000202020202020202020202020202D20640C
:10535000697361626C652070776D206368616E6E41
:10536000656C0A0067657400496E666F206F662081
:10537000646576696365205B25735D206368616E93
:105380006E656C205B25645D3A0A00007065726989
:105390006F642020202020203A2025640A0000008D
:1053A00070756C7365202020202020203A20256411
:1053B0000A00000044757479206379636C652020CD
:1053C0003A20256425250A0047657420696E666FBA
:1053D000206F66206465766963653A205B25735D9E
:1053E000206572726F722E0A0000000073657400EF
:1053F00070776D20696E666F20736574206F6E2004
:105400002573206174206368616E6E656C2025646D
:105410000A00000053657420696E666F206F662075
:105420006465766963653A205B25735D20657272F9
:105430006F720A0055736167653A2070776D20734B
:105440006574203C6368616E6E656C3E203C7065DF
:1054500072696F643E203C70756C73653E0A000093
:105460007068617365000000257320706861736562
:1054700020697320736574202564200A00000000F1
:10548000646561645F74696D650000002573206464
:105490006561645F74696D6520697320736574204C
:1054A0002564200A0000000055736167653A200AF0
:1054B0000000000070776D2070726F626520202000
:1054C0002020203C646576696365206E616D653ED1
:1054D00020202020202020202020202020202020CC
:1054E0002D2070726F62652070776D206279206E5A
:1054F000616D650A0000000070776D20656E616265
:105500006C6520202020203C6368616E6E656C3ED7
:10551000202020202020202020202020202020208B
:10552000202020202D20656E61626C652070776DD3
:10553000206368616E6E656C0A00000070776D20F4
:1055400064697361626C65202020203C6368616E31
:105550006E656C3E2020202020202020202020204E
:1055600020202020202020202D2064697361626C7F
:10557000652070776D206368616E6E656C0A00004F
:1055800070776D2067657420202020202020203C2B
:105590006368616E6E656C3E2020202020202020F4
:1055A0002020202020202020202020202D20676562
:1055B000742070776D206368616E6E656C20696E13
:1055C000666F0A0070776D2073657420202020209C
:1055D0002020203C6368616E6E656C3E203C7065E7
:1055E00072696F643E203C70756C73653E202020AC
:1055F0002D207365742070776D206368616E6E6511
:105600006C20696E666F0A0070776D207068617338
:10561000652020202020203C6368616E6E656C3E12
:10562000203C70686173653E2020202020202020CF
:10563000202020202D207365742070776D207068E5
:105640006173650A0000000070776D206465616415
:105650005F74696D6520203C6368616E6E656C3EA9
:10566000203C646561645F74696D653E2020202084
:10567000202020202D207365742070776D206465B4
:1056800061642074696D650A0000000070776D2008
:1056900070726F62652020202020203C646576694E
:1056A0006365206E616D653E202020202020202033
:1056B000202020202020202D2070726F6265207015
:1056C000776D206279206E616D650A0070776D20BC
:1056D000656E61626C6520202020203C6368616EED
:1056E0006E656C3E202020202020202020202020BD
:1056F000202020202020202D20656E61626C6520F6
:1057000070776D206368616E6E656C0A0000000042
:1057100070776D2064697361626C65202020203C85
:105720006368616E6E656C3E202020202020202062
:1057300020202020202020202020202D206469737C
:1057400061626C652070776D206368616E6E656C58
:105750000A00000070776D206765742020202020EB
:105760002020203C6368616E6E656C3E2020202006
:105770002020202020202020202020202020202D1C
:10578000206765742070776D206368616E6E656C4C
:1057900020696E666F0A000070776D207365742053
:1057A000202020202020203C6368616E6E656C3EC6
:1057B000203C706572696F643E203C70756C736547
:1057C0003E20202D207365742070776D2063686102
:1057D0006E6E656C20696E666F0A000070776D20D2
:1057E00070686173652020202020203C6368616E12
:1057F0006E656C3E203C70686173653E2020202001
:10580000202020202020202D207365742070776DAB
:105810002070686173650A0070776D20646561644B
:105820005F74696D6520203C6368616E6E656C3ED7
:10583000203C646561645F74696D653E20202020B2
:105840002020202D207365742070776D20646561A1
:10585000642074696D650A0070776D205B6F7074E9
:10586000696F6E5D0000000070776D0072785F6692
:1058700069666F20213D2052545F4E554C4C00000C
:1058800074785F6669666F20213D2052545F4E55E3
:105890004C4C0000747820213D2052545F4E554CF2
:1058A0004C00000073657269616C20213D205254E8
:1058B0005F4E554C4C0000001B5B33336D5B572F24
:1058C000554152545D2000005761726E696E673A0F
:1058D000205468657265206973206E6F20656E6F55
:1058E0007567682062756666657220666F722073E0
:1058F0006176696E6720646174612C20706C6561EB
:10590000736520696E6372656173652074686520D4
:1059100052545F53455249414C5F52425F42554693
:10592000535A206F7074696F6E2E000072745F6836
:10593000775F73657269616C5F6973720000000064
:1059400072745F73657269616C5F77726974650008
:1059500072745F73657269616C5F636F6E74726F8E
:105960006C00000072745F68775F73657269616CC8
:105970005F726567697374657200000072745F73AB
:10598000657269616C5F696E6974000072745F733F
:10599000657269616C5F6F70656E000072745F7331
:1059A000657269616C5F636C6F7365005F736572CC
:1059B00069616C5F696E745F7278000072745F7306
:1059C000657269616C5F7265616400005F73657226
:1059D00069616C5F696E745F747800001B5B324AAA
:1059E0001B5B480072745F7468726561645F740069
:1059F000252D2A2E2A7320007468726561640000C8
:105A0000252D2A2E2A7320707269202073746174E8
:105A100075732020202020207370202020202073E8
:105A20007461636B2073697A65206D61782075738A
:105A30006564206C656674207469636B20206572F0
:105A4000726F720A000000002D000000202D2D2D25
:105A500020202D2D2D2D2D2D2D202D2D2D2D2D2D9D
:105A60002D2D2D2D202D2D2D2D2D2D2D2D2D2D2080
:105A7000202D2D2D2D2D2D20202D2D2D2D2D2D2D7D
:105A80002D2D2D202D2D2D0A000000002570200029
:105A9000252D2A2E2A73202533642000207265616B
:105AA00064792020000000002073757370656E64B7
:105AB0000000000020696E697420202000000000B2
:105AC00020636C6F73652020000000002072756EEB
:105AD0006E696E670000000020307825303878202D
:105AE0003078253038782020202025303264252554
:105AF0002020203078253038782025730A000000D7
:105B000073656D6170686F7265000000252D2A2E27
:105B10002A73207620202073757370656E6420745C
:105B200068726561640A0000202D2D2D202D2D2D19
:105B30002D2D2D2D2D2D2D2D2D2D2D0A000000006C
:105B4000252D2A2E2A7320253033642025643A001F
:105B5000252E2A7300000000252D2A2E2A732025C9
:105B60003033642025640A006576656E7400000099
:105B7000252D2A2E2A7320202020202073657420B2
:105B800020202073757370656E642074687265617F
:105B9000640A000020202D2D2D2D2D2D2D2D2D2D95
:105BA000202D2D2D2D2D2D2D2D2D2D2D2D2D2D0A55
:105BB00000000000252D2A2E2A7320203078253061
:105BC000387820253033643A00000000252D2A2E35
:105BD0002A73202030782530387820300A000000E1
:105BE0006D75746578000000252D2A2E2A732020FB
:105BF000206F776E65722020686F6C642070726908
:105C00006F726974792073757370656E642074683F
:105C100072656164200A0000202D2D2D2D2D2D2D63
:105C20002D202D2D2D2D202D2D2D2D2D2D2D2D20CB
:105C30002D2D2D2D2D2D2D2D2D2D2D2D2D2D0A00E4
:105C4000252D2A2E2A7320252D382E2A7320253023
:105C5000346420253864202025303464200000007E
:105C6000252D2A2E2A7320252D382E2A7320253003
:105C70003464202538642020253034640A00000074
:105C80006D61696C626F7800252D2A2E2A7320655C
:105C90006E7472792073697A652073757370656E9E
:105CA00064207468726561640A000000202D2D2D47
:105CB0002D20202D2D2D2D202D2D2D2D2D2D2D2D3B
:105CC0002D2D2D2D2D2D0A00252D2A2E2A73202530
:105CD0003034642020253034642025643A000000EC
:105CE000252D2A2E2A732025303464202025303497
:105CF000642025640A0000006D7367717565756521
:105D000000000000252D2A2E2A7320656E747279FA
:105D10002073757370656E64207468726561640ABF
:105D200000000000202D2D2D2D20202D2D2D2D2D7E
:105D30002D2D2D2D2D2D2D2D2D0A0000252D2A2E1A
:105D40002A732025303464202025643A00000000A6
:105D5000252D2A2E2A732025303464202025640A1C
:105D6000000000006D656D6865617000252D2A2EAC
:105D70002A732020706F6F6C2073697A6520206D04
:105D8000617820757365642073697A652061766136
:105D9000696C61626C652073697A650A00000000B5
:105DA000202D2D2D2D2D2D2D2D2D2D202D2D2D2D3D
:105DB0002D2D2D2D2D2D2D2D2D202D2D2D2D2D2D20
:105DC0002D2D2D2D2D2D2D2D0A000000252D2A2EB7
:105DD0002A7320252D3031306420252D3031336455
:105DE00020252D3035640A006D656D706F6F6C0075
:105DF000252D2A2E2A7320626C6F636B20746F74BA
:105E0000616C20667265652073757370656E6420C1
:105E10007468726561640A00202D2D2D2D20202DBF
:105E20002D2D2D20202D2D2D2D202D2D2D2D2D2DC9
:105E30002D2D2D2D2D2D2D2D0A000000252D2A2E46
:105E40002A73202530346420202530346420202516
:105E50003034642025640A00252D2A2E2A7320253B
:105E600030346420202530346420202530346420F0
:105E700025643A0074696D6572000000252D2A2E94
:105E80002A732020706572696F6469632020207412
:105E9000696D656F75742020202061637469766177
:105EA00074656420202020206D6F64650A00000066
:105EB000202D2D2D2D2D2D2D2D2D2D202D2D2D2D2C
:105EC0002D2D2D2D2D2D202D2D2D2D2D2D2D2D2D0F
:105ED0002D2D202D2D2D2D2D2D2D2D2D0A000000A9
:105EE000252D2A2E2A7320307825303878203078D6
:105EF000253038782000000061637469766174652C
:105F0000642020200000000064656163746976618C
:105F10007465642000000000706572696F646963D5
:105F20000A0000006F6E652073686F740A0000003D
:105F300063757272656E74207469636B3A3078258C
:105F40003038780A00000000556E6B6E6F776E0077
:105F5000252D2A2E2A732020202020202020207466
:105F60007970652020202020202020207265662066
:105F7000636F756E740A0000202D2D2D2D2D2D2D93
:105F80002D2D2D2D2D2D2D2D2D2D2D2D2D202D2D4E
:105F90002D2D2D2D2D2D2D2D0A000000252D2A2EE5
:105FA0002A7320252D32307320252D38640A0000F5
:105FB00055736167653A206C697374205B6F707408
:105FC000696F6E735D0A00005B6F7074696F6E734A
:105FD0005D3A0A006C697374207468726561647359
:105FE000000000006C6973742074696D6572730041
:105FF00073656D006C6973742073656D6170686F93
:10600000726573006C697374206576656E747300D5
:106010006C697374206D7574657873006C69737442
:10602000206D61696C626F78730000006C69737435
:10603000206D6573736167652071756575657300A3
:106040006C697374206D656D6F727920686561701D
:10605000730000006C697374206D656D6F72792038
:10606000706F6F6C730000006C69737420646576E8
:106070006963657300000000666400006C697374F6
:106080002066696C652064657363726970746F72F1
:106090007300000043686172616374657220446537
:1060A0007669636500000000426C6F636B20446595
:1060B00076696365000000004E6574776F726B202F
:1060C000496E746572666163650000004D5444203A
:1060D000446576696365000043414E2044657669F6
:1060E0006365000052544300536F756E642044652D
:1060F000766963650000000047726170686963201B
:106100004465766963650000493243204275730037
:1061100055534220536C617665204465766963650A
:106120000000000055534220486F7374204275737D
:1061300000000000555342204F5447204275730021
:106140005350492042757300535049204465766985
:10615000636500005344494F2042757300000000FE
:10616000504D2050736575646F2044657669636592
:10617000000000005069706500000000506F7274EC
:10618000616C2044657669636500000054696D6543
:106190007220446576696365000000004D69736391
:1061A000656C6C616E656F757320446576696365B7
:1061B0000000000053656E736F722044657669635A
:1061C00065000000546F75636820446576696365F7
:1061D000000000005068792044657669636500001E
:1061E00053656375726974792044657669636500E7
:1061F000574C414E204465766963650050696E20B6
:1062000044657669636500004144432044657669CE
:10621000636500004441432044657669636500007E
:1062200057445420446576696365000050574D20FB
:10623000446576696365000042757320446576693C
:106240006365000094605860A8605860B86058604A
:10625000CC605860D8605860E4605860E86058606E
