:020000040834BE
:1004000000D00F24A9D83408C1D734080F9334087A
:10041000C9D73408EDD7340805D8340800000000E7
:1004200000000000000000000000000059973408A0
:100430000000000000000000FB913408E9D73408F8
:10044000E1D73408E1D73408E1D73408E1D73408DC
:10045000E1D73408E1D73408E1D73408E1D73408CC
:10046000E1D73408E1D73408E1D73408E1D73408BC
:10047000E1D73408E1D73408E1D73408E1D73408AC
:10080000E1D7340848656C6C6F2052542D546872DF
:100810006561640D0A0000005468697320636F729B
:100820006520697320636F727465782D6D33330AA8
:1008300000000000BD2D3408F92D3408D52D3408F2
:1008400000002A4200001D440000000000000000DB
:100850000000000000000000000000000000000098
:10086000000000000100000007000000050000007B
:100870000600000000000000020000000000000070
:100880000A0000000900000005000000060000004A
:100890000A0000000D000000010000000B00000035
:1008A0000D00000005000000040000000100000031
:1008B0000100000000000000000000000000000037
:1008C000000000000100000006000500000100001B
:1008D00064657620213D2052545F4E554C4C0000FB
:1008E00072745F6F626A6563745F6765745F747961
:1008F000706528266465762D3E706172656E742978
:10090000203D3D2052545F4F626A6563745F436CC3
:100910006173735F446576696365000072745F6F2D
:10092000626A6563745F69735F73797374656D6F11
:10093000626A65637428266465762D3E706172650F
:100940006E7429001B5B33316D5B452F6B65726ED6
:10095000656C2E6465766963655D2000546F20695F
:100960006E697469616C697A65206465766963652E
:100970003A2573206661696C65642E205468652091
:100980006572726F7220636F6465206973202564DD
:10099000000000001B5B306D0A0000006465762DCE
:1009A0003E7265665F636F756E7420213D20300076
:1009B00072745F6465766963655F7365745F72788E
:1009C0005F696E64696361746500000072745F64DE
:1009D00065766963655F77726974650072745F64D8
:1009E00065766963655F72656164000072745F6457
:1009F00065766963655F636C6F73650072745F64CD
:100A000065766963655F6F70656E0000636F6D701A
:100A10006C6574696F6E20213D2052545F4E554CB9
:100A20004C00000046756E6374696F6E5B25735DE4
:100A30003A207363686564756C6572206973206E13
:100A40006F7420617661696C61626C650A000000F8
:100A50003000000046756E6374696F6E5B25735DD0
:100A60003A20696E746572727570742069732064BF
:100A7000697361626C65640A0000000046756E630C
:100A800074696F6E5B25735D207368616C6C206E9A
:100A90006F742062652075736564206265666F728D
:100AA00065207363686564756C6572207374617228
:100AB000740A000046756E6374696F6E5B25735D22
:100AC000207368616C6C206E6F7420626520757392
:100AD000656420696E204953520A000072745F6C8D
:100AE0006973745F6973656D707479282628636F04
:100AF0006D706C6574696F6E2D3E73757370656E85
:100B00006465645F6C6973742929000072745F63A3
:100B10006F6D706C6574696F6E5F646F6E650000F9
:100B200072745F636F6D706C6574696F6E5F77610F
:100B30006974000072745F636F6D706C6574696FC7
:100B40006E5F696E6974000070696E20213D2052ED
:100B5000545F4E554C4C000070696E205B6F707492
:100B6000696F6E5D204750494F0A00002020202009
:100B7000206E756D3A20202020202067657420703B
:100B8000696E206E756D6265722066726F6D206889
:100B9000617264776172652070696E0A00000000FE
:100BA00020202020206D6F64653A202020202073B3
:100BB00065742070696E206D6F646520746F206F9E
:100BC00075747075742F696E7075742F696E707599
:100BD000745F70756C6C75702F696E7075745F7072
:100BE000756C6C646F776E2F6F75747075745F6F52
:100BF000640A000020202020202020202020202007
:100C0000202020652E672E204D5348203E70696EAF
:100C1000206D6F6465204750494F206F7574707563
:100C2000740A00002020202020726561643A202090
:100C3000202020726561642070696E206C65766585
:100C40006C206F66206861726477617265207069DC
:100C50006E0A00002020202020202020202020209C
:100C6000202020652E672E204D5348203E70696E4F
:100C70002072656164204750494F0A0020202020DF
:100C80002077726974653A20202020777269746534
:100C90002070696E206C6576656C28686967682FBE
:100CA0006C6F77206F72206F6E2F6F6666292074CD
:100CB0006F2068617264776172652070696E0A00E6
:100CC00020202020202020202020202020202065DF
:100CD0002E672E204D5348203E70696E2077726932
:100CE0007465204750494F20686967680A00000012
:100CF000202020202068656C703A2020202020745D
:100D00006869732068656C70206C6973740A0000F0
:100D10004750494F20652E672E3A00005F68775F85
:100D200070696E2E6F707320213D2052545F4E55B6
:100D30004C4C00006E756D00506172616D6574659C
:100D40007220696E76616C6964203A202573210AED
:100D5000000000002573203A2025640A00000000EE
:100D60006D6F6465000000006F757470757400002D
:100D7000696E707574000000696E7075745F7075CF
:100D80006C6C757000000000696E7075745F707532
:100D90006C6C646F776E00006F75747075745F6F44
:100DA00064000000726561640000000070696E5BA1
:100DB00025645D203D20686967680A0070696E5B84
:100DC00025645D203D206C6F770A0000777269749E
:100DD0006500000068696768000000006C6F7700BC
:100DE0006F66660072745F70696E5F67657400009D
:100DF00072745F70696E5F726561640072745F70B7
:100E0000696E5F77726974650000000072745F70CC
:100E1000696E5F6D6F6465005F70696E5F726561BA
:100E2000640000005F70696E5F777269746500002E
:100E30005F70696E5F636F6E74726F6C00000000AC
:100E400070696E205B6F7074696F6E5D00000000EA
:100E500070696E0072785F6669666F20213D20526E
:100E6000545F4E554C4C000074785F6669666F2085
:100E7000213D2052545F4E554C4C00007478202187
:100E80003D2052545F4E554C4C0000007365726912
:100E9000616C20213D2052545F4E554C4C000000A7
:100EA0001B5B33336D5B572F554152545D2000005F
:100EB0005761726E696E673A205468657265206981
:100EC00073206E6F20656E6F756768206275666649
:100ED000657220666F7220736176696E6720646147
:100EE00074612C20706C6561736520696E63726536
:100EF000617365207468652052545F5345524941BF
:100F00004C5F52425F425546535A206F7074696F6E
:100F10006E2E000072745F68775F73657269616C32
:100F20005F6973720000000072745F7365726961BB
:100F30006C5F77726974650072745F736572696162
:100F40006C5F636F6E74726F6C00000072745F6828
:100F5000775F73657269616C5F72656769737465E9
:100F60007200000072745F73657269616C5F696E14
:100F70006974000072745F73657269616C5F6F7091
:100F8000656E000072745F73657269616C5F636C9B
:100F90006F7365005F73657269616C5F696E745F22
:100FA0007278000072745F73657269616C5F72655C
:100FB000616400005F73657269616C5F696E745F84
:100FC000747800001B5B324A1B5B480072745F74CC
:100FD00068726561645F7400252D2A2E2A732000D3
:100FE0007468726561640000252D2A2E2A732070B2
:100FF0007269202073746174757320202020202072
:1010000073702020202020737461636B2073697AD1
:1010100065206D61782075736564206C6566742049
:101020007469636B20206572726F720A00000000A1
:101030002D000000202D2D2D20202D2D2D2D2D2D8E
:101040002D202D2D2D2D2D2D2D2D2D2D202D2D2DEA
:101050002D2D2D2D2D2D2D20202D2D2D2D2D2D20E7
:10106000202D2D2D2D2D2D2D2D2D2D202D2D2D0AED
:101070000000000025702000252D2A2E2A7320252F
:101080003364200020726561647920200000000034
:101090002073757370656E640000000020696E69CE
:1010A000742020200000000020636C6F73652020F6
:1010B000000000002072756E6E696E67000000000F
:1010C0002030782530387820307825303878202046
:1010D0002020253032642525202020307825303806
:1010E000782025730A00000073656D6170686F7267
:1010F00065000000252D2A2E2A73207620202073DB
:10110000757370656E64207468726561640A0000AE
:10111000202D2D2D202D2D2D2D2D2D2D2D2D2D2D19
:101120002D2D2D0A00000000252D2A2E2A732025A2
:101130003033642025643A00252E2A730000000015
:101140002F000000252D2A2E2A73202530336420FD
:1011500025640A006576656E74000000252D2A2E30
:101160002A732020202020207365742020202073E3
:10117000757370656E64207468726561640A00003E
:1011800020202D2D2D2D2D2D2D2D2D2D202D2D2DB6
:101190002D2D2D2D2D2D2D2D2D2D2D0A0000000056
:1011A000252D2A2E2A7320203078253038782025C6
:1011B0003033643A00000000252D2A2E2A732020A7
:1011C00030782530387820300A0000006D7574655D
:1011D00078000000252D2A2E2A732020206F776E9C
:1011E00065722020686F6C64207072696F72697418
:1011F000792073757370656E6420746872656164BC
:10120000200A0000202D2D2D2D2D2D2D2D202D2DB2
:101210002D2D202D2D2D2D2D2D2D2D202D2D2D2D18
:101220002D2D2D2D2D2D2D2D2D2D0A00252D2A2E48
:101230002A7320252D382E2A73202530346420254A
:10124000386420202530346420000000252D2A2E0B
:101250002A7320252D382E2A73202530346420252A
:1012600038642020253034640A0000006D61696C08
:10127000626F7800252D2A2E2A7320656E7472798C
:101280002073697A652073757370656E6420746865
:10129000726561640A000000202D2D2D2D20202D67
:1012A0002D2D2D202D2D2D2D2D2D2D2D2D2D2D2D7B
:1012B0002D2D0A00252D2A2E2A7320253034642056
:1012C00020253034642025643A000000252D2A2E84
:1012D0002A7320253034642020253034642025648E
:1012E0000A0000006D736771756575650000000088
:1012F000252D2A2E2A7320656E74727920737573DA
:1013000070656E64207468726561640A0000000094
:10131000202D2D2D2D20202D2D2D2D2D2D2D2D2D24
:101320002D2D2D2D2D0A0000252D2A2E2A73202546
:10133000303464202025643A00000000252D2A2E38
:101340002A732025303464202025640A0000000020
:101350006D656D6865617000252D2A2E2A73202029
:10136000706F6F6C2073697A6520206D61782075CD
:101370007365642073697A6520617661696C616266
:101380006C652073697A650A00000000202D2D2D00
:101390002D2D2D2D2D2D2D202D2D2D2D2D2D2D2D8A
:1013A0002D2D2D2D2D202D2D2D2D2D2D2D2D2D2D7A
:1013B0002D2D2D2D0A000000252D2A2E2A732025E3
:1013C0002D3031306420252D3031336420252D30EF
:1013D00035640A006D656D706F6F6C00252D2A2EC7
:1013E0002A7320626C6F636B20746F74616C20666B
:1013F0007265652073757370656E642074687265BC
:1014000061640A00202D2D2D2D20202D2D2D2D2025
:10141000202D2D2D2D202D2D2D2D2D2D2D2D2D2D16
:101420002D2D2D2D0A000000252D2A2E2A73202572
:10143000303464202025303464202025303464206A
:1014400025640A00252D2A2E2A7320253034642095
:1014500020253034642020253034642025643A006F
:1014600074696D6572000000252D2A2E2A732020D4
:10147000706572696F64696320202074696D656F9F
:10148000757420202020616374697661746564201E
:10149000202020206D6F64650A000000202D2D2D76
:1014A0002D2D2D2D2D2D2D202D2D2D2D2D2D2D2D79
:1014B0002D2D202D2D2D2D2D2D2D2D2D2D2D202D76
:1014C0002D2D2D2D2D2D2D2D0A000000252D2A2E00
:1014D0002A732030782530387820307825303878D5
:1014E00020000000616374697661746564202020C7
:1014F000000000006465616374697661746564204E
:1015000000000000706572696F6469630A00000082
:101510006F6E652073686F740A00000063757272E5
:10152000656E74207469636B3A3078253038780AB8
:1015300000000000556E6B6E6F776E006465766913
:1015400063650000252D2A2E2A73202020202020CC
:101550002020207479706520202020202020202049
:1015600072656620636F756E740A0000202D2D2D44
:101570002D2D2D2D2D2D2D2D2D2D2D2D2D2D2D2D9B
:101580002D202D2D2D2D2D2D2D2D2D2D0A00000042
:10159000252D2A2E2A7320252D32307320252D3813
:1015A000640A000055736167653A206C69737420A2
:1015B0005B6F7074696F6E735D0A00005B6F7074AF
:1015C000696F6E735D3A0A006C6973742074687297
:1015D00065616473000000006C6973742074696D48
:1015E0006572730073656D006C6973742073656D4B
:1015F0006170686F726573006C69737420657665DD
:101600006E7473006C697374206D75746578730003
:101610006C697374206D61696C626F78730000008F
:101620006C697374206D657373616765207175658E
:10163000756573006C697374206D656D6F727920C8
:1016400068656170730000006C697374206D656D6E
:101650006F727920706F6F6C730000006C69737427
:1016600020646576696365730000000043686172F9
:1016700061637465722044657669636500000000EB
:10168000426C6F636B2044657669636500000000FF
:101690004E6574776F726B20496E74657266616314
:1016A000650000004D544420446576696365000080
:1016B00043414E20446576696365000052544300FF
:1016C000536F756E642044657669636500000000A1
:1016D00047726170686963204465766963650000DC
:1016E000493243204275730055534220536C617652
:1016F000652044657669636500000000555342200B
:10170000486F7374204275730000000055534220E7
:101710004F5447204275730053504920427573005F
:101720005350492044657669636500005344494F2E
:101730002042757300000000504D205073657564A1
:101740006F2044657669636500000000506970652C
:1017500000000000506F7274616C2044657669630C
:101760006500000054696D657220446576696365A3
:10177000000000004D697363656C6C616E656F7588
:1017800073204465766963650000000053656E73DD
:101790006F7220446576696365000000546F75635D
:1017A0006820446576696365000000005068792010
:1017B0004465766963650000536563757269747981
:1017C0002044657669636500574C414E2044657638
:1017D0006963650050696E20446576696365000041
:1017E00041444320446576696365000044414320D9
:1017F0004465766963650000574454204465766902
:101800006365000050574D204465766963650000AC
:101810004275732044657669636500006C16340870
:101820008016340890163408A4163408B01634080C
:10183000BC163408C0163408D0163408E016340834
:10184000E8163408FC1634080C1734081817340846
:10185000201734082C173408381734084C1734086C
:101860005417340864173408741734088C17340874
:101870009C173408AC173408B8173408C817340854
:10188000D4173408E0173408EC173408F817340874
:1018900004183408101834086C697374206F626A75
:1018A00065637473000000006C69737400000000CD
:1018B00073686F77205254202D20546872656164DC
:1018C0002076657273696F6E20696E666F726D61E6
:1018D00074696F6E0000000076657273696F6E0048
:1018E000636C65617220746865207465726D696EE1
:1018F000616C2073637265656E000000636C6561E6
:101900007200000052542D5468726561642073683F
:10191000656C6C20636F6D6D616E64733A0A0000D4
:10192000546F6F206D616E79206172677320212082
:101930005765206F6E6C79205573653A0A00000078
:101940002573200025733A20636F6D6D616E6420EE
:101950006E6F7420666F756E642E0A002020202042
:10196000252D313673202D2025730A0053686F779B
:1019700020746865206D656D6F727920757361677D
:101980006520696E207468652073797374656D2EA7
:101990000000000066726565000000004C69737409
:1019A000207468726561647320696E2074686520B4
:1019B00073797374656D2E00707300005254202D7E
:1019C00020546872656164207368656C6C2068657A
:1019D0006C702E0068656C70000000007368656CA8
:1019E0006C20213D2052545F4E554C4C00000000AD
:1019F0006E6F206D656D6F727920666F72207368EF
:101A0000656C6C0A00000000747368656C6C000003
:101A100073687278000000006D7368200000000099
:101A20003E00000066696E73683A2063616E206E46
:101A30006F742066696E64206465766963653A2018
:101A400025730A001B5B324B0D00000025732573C4
:101A50000000000008000000256300000825732036
:101A600020080000082008002573000066696E73D6
:101A7000685F72785F696E640000000066696E736B
:101A8000685F7365745F6465766963650000000074
:101A900066696E73685F67657463686172000000F1
:101AA00066696E73685F7365745F70726F6D707472
:101AB0005F6D6F64650000007073723A20307825A6
:101AC0003038780A000000007230303A2030782533
:101AD0003038780A000000007230313A2030782522
:101AE0003038780A000000007230323A2030782511
:101AF0003038780A000000007230333A2030782500
:101B00003038780A000000007230343A20307825EE
:101B10003038780A000000007230353A20307825DD
:101B20003038780A000000007230363A20307825CC
:101B30003038780A000000007230373A20307825BB
:101B40003038780A000000007230383A20307825AA
:101B50003038780A000000007230393A2030782599
:101B60003038780A000000007231303A2030782591
:101B70003038780A000000007231313A2030782580
:101B80003038780A000000007231323A203078256F
:101B90003038780A00000000206C723A2030782536
:101BA0003038780A000000002070633A2030782531
:101BB0003038780A00000000686172642066617540
:101BC0006C74206F6E207468726561643A202573AE
:101BD0000D0A0D0A000000006861726420666175DC
:101BE0006C74206F6E2068616E646C65720D0A0DF6
:101BF0000A00000046505520616374697665210D26
:101C00000A0000006661696C656420766563746F24
:101C1000722066657463680A0000000062757320B4
:101C20006661756C743A0A005343425F43465352EF
:101C30005F424653523A3078253032582000000037
:101C4000494255534552522000000000505245432E
:101C50004953455252200000494D50524543495383
:101C60004552522000000000554E53544B455252ED
:101C70002000000053544B45525220005343422D44
:101C80003E424641523A253038580A006D656D2073
:101C90006D616E616765206661756C743A0A00005B
:101CA0005343425F434653525F4D4653523A307856
:101CB00025303258200000004941434356494F4CDB
:101CC000200000004441434356494F4C200000008F
:101CD0004D554E53544B4552522000004D53544BDA
:101CE00045525220000000005343422D3E4D4D41CD
:101CF000523A253038580A0075736167652066616D
:101D0000756C743A0A0000005343425F43465352D5
:101D10005F554653523A3078253032582000000043
:101D2000554E444546494E5354522000494E565351
:101D30005441544520000000494E565043200000B5
:101D40004E4F435020000000554E414C49474E45F0
:101D50004420000044495642595A45524F20000041
:101D60006465627567206576656E740A0000000020
:101D7000416C6C6F6320436F6E74657874204661AC
:101D8000696C65640A0000006D61696E0000000006
:101D900074696420213D2052545F4E554C4C000024
:101DA00072745F6170706C69636174696F6E5F6992
:101DB0006E6974007469646C652564006D6220212D
:101DC0003D2052545F4E554C4C00000072745F6FC2
:101DD000626A6563745F6765745F747970652826ED
:101DE0006D622D3E706172656E742E706172656EEB
:101DF0007429203D3D2052545F4F626A6563745FD1
:101E0000436C6173735F4D61696C426F78000000D1
:101E100073656D20213D2052545F4E554C4C00009F
:101E200072745F6F626A6563745F6765745F74790B
:101E30007065282673656D2D3E706172656E742E17
:101E4000706172656E7429203D3D2052545F4F626F
:101E50006A6563745F436C6173735F53656D617032
:101E6000686F7265000000006D7574657820213D13
:101E70002052545F4E554C4C0000000072745F6F4E
:101E8000626A6563745F6765745F7479706528263C
:101E90006D757465782D3E706172656E742E70611B
:101EA00072656E7429203D3D2052545F4F626A6511
:101EB00063745F436C6173735F4D75746578000084
:101EC00076616C7565203C2030783130303030558B
:101ED0000000000028666C6167203D3D2052545F81
:101EE0004950435F464C41475F4649464F29207C55
:101EF0007C2028666C6167203D3D2052545F49502C
:101F0000435F464C41475F5052494F290000000053
:101F100072745F6D757465785F72656C6561736509
:101F2000000000005F72745F6D757465785F7461A6
:101F30006B65000072745F6D757465785F696E69BA
:101F40007400000072745F73656D5F72656C65612B
:101F5000736500005F6970635F6C6973745F7375AC
:101F60007370656E640000005F72745F73656D5F0F
:101F700074616B650000000072745F73656D5F696A
:101F80006E69740045554E4B4E4F5700284E554CC8
:101F90004C2900000A205C207C202F0A0000000051
:101FA0002D205254202D202020202054687265615D
:101FB00064204F7065726174696E67205379737421
:101FC000656D0A00202F207C205C20202020202509
:101FD000642E25642E2564206275696C6420257347
:101FE0002025730A0000000030393A34343A313584
:101FF000000000004A756C2032302032303236004A
:102000002032303036202D203230323220436F7073
:102010007972696768742062792052542D5468720D
:10202000656164207465616D0A0000005573696E16
:10203000672064656661756C742072745F68775F91
:102040006370755F73687574646F776E28292E509E
:102050006C6561736520636F6E7369646572206976
:102060006D706C656D656E74696E672072745F6803
:10207000775F6370755F7265736574282920696E78
:1020800020616E6F746865722066696C652E000051
:102090002825732920617373657274696F6E2066D9
:1020A00061696C65642061742066756E6374696F24
:1020B0006E3A25732C206C696E65206E756D6265B5
:1020C000723A2564200A0000656E645F616C69677E
:1020D0006E203E20626567696E5F616C69676E00A5
:1020E00068656170000000006C6576656C203D3DA0
:1020F0002052545F454F4B004F4B202020202000A2
:102100004552524F522020004554494D4F555400DE
:1021100045525346554C4C00455253455054590076
:10212000454E4F4D454D2000454E4F5359532000CD
:10213000454255535920200045494F20202020007A
:1021400045494E545250540045494E56414C20008A
:10215000454E4F454E542000454E4F5350432000AE
:10216000455045524D2020004554524150202000FA
:102170005F686561705F756E6C6F636B0000000077
:1021800072745F73797374656D5F686561705F69A0
:102190006E697400000001000200010003000100EC
:1021A0000200010004000100020001000300010020
:1021B000020001000500010002000100030001000F
:1021C0000200010004000100020001000300010000
:1021D00002000100060001000200010003000100EE
:1021E00002000100040001000200010003000100E0
:1021F00002000100050001000200010003000100CF
:1022000002000100040001000200010003000100BF
:1022100002000100070001000200010003000100AC
:10222000020001000400010002000100030001009F
:10223000020001000500010002000100030001008E
:10224000020001000400010002000100030001007F
:10225000020001000600010002000100030001006D
:10226000020001000400010002000100030001005F
:10227000020001000500010002000100030001004E
:10228000020001000400010002000100030001003F
:1022900002000100303132333435363738394142AB
:1022A000434445460000000000000000F8203408C8
:1022B000FF000000002134087400000008213408E9
:1022C0001C000000102134083D00000018213408D3
:1022D0000C00000020213408580000002821340898
:1022E00010000000302134080500000038213408B7
:1022F0000400000040213408160000004821340882
:1023000002000000502134081C000000582134084D
:102310000100000060213408FE000000682134083C
:10232000303132333435363738396162636465664B
:10233000000000006D656D6865617020213D2052D0
:10234000545F4E554C4C000072745F6F626A656357
:10235000745F6765745F747970652826686561705D
:102360002D3E706172656E7429203D3D2052545F90
:102370004F626A6563745F436C6173735F4D656D33
:10238000486561700000000072745F6F626A656387
:10239000745F69735F73797374656D6F626A656387
:1023A000742826686561702D3E706172656E7429AF
:1023B000000000006865617020213D2052545F4E8E
:1023C000554C4C00286865616465725F7074722DAD
:1023D0003E6E6578742D3E6D6167696320262052DC
:1023E000545F4D454D484541505F4D41534B292069
:1023F0003D3D2052545F4D454D484541505F4D4154
:10240000474943006865616465725F7074722D3E70
:102410006D61676963203D3D202852545F4D454DF5
:10242000484541505F4D41474943207C2052545F0D
:102430004D454D484541505F5553454429000000E6
:10244000696E666F726D6174696F6E20213D2052F6
:10245000545F4E554C4C00005F6D656D6865617052
:102460005F616C6C6F63000072745F6D656D6865B1
:1024700061705F667265650072745F6D656D686539
:1024800061705F616C6C6F630000000072745F6D5F
:10249000656D686561705F696E6974006F626A205E
:1024A000213D206F626A6563740000006F626A6597
:1024B000637420213D2052545F4E554C4C00000067
:1024C00021286F626A6563742D3E747970652026D9
:1024D0002052545F4F626A6563745F436C6173732B
:1024E0005F537461746963290000000072745F6F48
:1024F000626A6563745F66696E64000072745F6F20
:10250000626A6563745F6765745F74797065000003
:1025100072745F6F626A6563745F69735F73797306
:1025200074656D6F626A65637400000072745F6F3A
:10253000626A6563745F64656C65746500000000C1
:1025400072745F6F626A6563745F616C6C6F636104
:102550007465000072745F6F626A6563745F6465BE
:10256000746163680000000072745F6F626A656383
:10257000745F696E6974000074687265616420211B
:102580003D2052545F4E554C4C00000074687265FB
:1025900061643A257320737461636B206F76657292
:1025A000666C6F770A0000007761726E696E673A39
:1025B00020257320737461636B20697320636C6FD3
:1025C000736520746F20656E64206F66207374617C
:1025D000636B20616464726573732E0A00000000EF
:1025E00072745F7363686564756C655F72656D6F47
:1025F00076655F74687265616400000072745F7371
:1026000063686564756C655F696E736572745F7429
:102610006872656164000000287468726561642DE9
:102620003E7374617420262052545F5448524541D1
:10263000445F53555350454E445F4D41534B292001
:102640003D3D2052545F5448524541445F535553D9
:1026500050454E445F4D41534B00000072745F6F14
:10266000626A6563745F6765745F74797065282852
:1026700072745F6F626A6563745F742974687265EF
:10268000616429203D3D2052545F4F626A65637446
:102690005F436C6173735F5468726561640000002E
:1026A000737461636B5F737461727420213D205297
:1026B000545F4E554C4C00007072696F72697479AA
:1026C000203C2052545F5448524541445F50524987
:1026D0004F524954595F4D415800000072745F6F6A
:1026E000626A6563745F69735F73797374656D6F34
:1026F000626A656374282872745F6F626A656374C6
:102700005F742974687265616429000072745F6F78
:10271000626A6563745F69735F73797374656D6F03
:10272000626A656374282872745F6F626A65637495
:102730005F742974687265616429203D3D2052549C
:102740005F46414C53450000746872656164203DEA
:102750003D2072745F7468726561645F73656C6656
:1027600028290000287468726561642D3E737461C5
:102770007420262052545F5448524541445F5354BC
:1027800041545F4D41534B29203D3D2052545F54ED
:1027900048524541445F494E495400000406070031
:1027A00072745F7468726561645F726573756D657C
:1027B0000000000072745F7468726561645F736525
:1027C000745F73757370656E645F737461746500B4
:1027D0005F7468726561645F696E6974000000000F
:1027E00072745F7468726561645F696E6974000019
:1027F00072745F7468726561645F73757370656E1F
:10280000645F776974685F666C61670072745F7497
:1028100068726561645F636F6E74726F6C00000054
:1028200072745F7468726561645F736C6565700073
:1028300072745F7468726561645F64656C65746509
:102840000000000072745F7468726561645F6465A3
:10285000746163680000000072745F74687265617F
:10286000645F737461727475700000005F746872E5
:102870006561645F74696D656F75740074696D6519
:102880007220213D2052545F4E554C4C00000000F8
:1028900074696D656F757420213D2052545F4E55EB
:1028A0004C4C000074696D65203C2052545F5449C3
:1028B000434B5F4D4158202F2032000072745F6FF0
:1028C000626A6563745F6765745F747970652826F2
:1028D00074696D65722D3E706172656E7429203D5C
:1028E0003D2052545F4F626A6563745F436C61734D
:1028F000735F54696D65720072745F6F626A6563BD
:10290000745F69735F73797374656D6F626A656311
:1029100074282674696D65722D3E706172656E74DF
:1029200029000000282A2872745F7469636B5F7441
:10293000202A2961726729203C2052545F54494360
:102940004B5F4D4158202F203200000072745F749D
:10295000696D65725F636F6E74726F6C000000006A
:1029600072745F74696D65725F73746F70000000DC
:1029700072745F74696D65725F7374617274000064
:1029800072745F74696D65725F6465746163680019
:1029900072745F74696D65725F696E6974000000BE
:1029A00054686520736F66747761726520656E6127
:1029B000626C6573207468652073797374656D202B
:1029C000746F207368757420646F776E2E2053695E
:1029D0006D706C7920707265737320746865206205
:1029E0007574746F6E20746F207265737461727485
:1029F0002069742E00000000706F7765726F666644
:102A00000000000075617274320000005265626F50
:102A10006F742053797374656D0000007265626F86
:102A20006F74000070696E00F5D33408D5D1340896
:102A300099D1340859D2340815D23408CDD234088B
:102A4000000000000000000001003B000200010047
:102A50000300020004003C0005000300060004001F
:102A60000700050008000600090007000A0008002A
:102A70000B0009000C000A000D000B000E000C00FA
:102A80000F000D0010000E0011000F0012001000CA
:102A90001300110014001200150013007561727408
:102AA00020213D2052545F4E554C4C007265737589
:102AB0006C74203D3D2052545F454F4B0000000098
:102AC000756172745F6F626A5B696E6465785D2EB2
:102AD000636F6E6669672D3E756172745F6F626ABF
:102AE00020213D2052545F4E554C4C00756172744C
:102AF0003500000000C201000800020072745F6827
:102B0000775F756172745F696E6974006966785F7A
:102B1000636F6E6669677572650000006966785F4D
:102B2000636F6E74726F6C006966785F7561727442
:102B300068735F70757463006966785F756172743D
:102B400068735F6765746300756172745F6973723F
:102B500000000000D5D5340865D534081DD53408EB
:102B6000BDD4340800000000000100000100000096
:102B700001000000000000000A0000000800000042
:102B80000002000000000000000000000000000043
:102B90000000000000000000000000000000000035
:102BA0000B000000000000003F00000000000000DB
:102BB0003F00000000000000682B3408340834088F
:102BC00000009A42B82B3408060700FFFF000000FF
:102BD00000010000000000000000000000000000F4
:102BE0000A000000080000000002000000000000D1
:102BF00000000000000000000000000000000000D5
:102C000000000000000000000B00000000000000B9
:102C10003F000000000000003F0000000000000036
:102C2000D02B34083408340800009D42202C34088E
:102C3000110100FFFF00000011000000090000006A
:102C40000A0000000000000000202020202020209A
:102C5000202028282828282020202020202020204C
:102C6000202020202020202020881010101010105C
:102C700010101010101010101004040404040404A8
:102C80000404041010101010101041414141414142
:102C90000101010101010101010101010101010124
:102CA0000101010110101010101042424242424234
:102CB00002020202020202020202020202020202F4
:102CC000020202021010101020000000000000009C
:102CD00000000000000000000000000000000000F4
:102CE00000000000000000000000000000000000E4
:102CF00000000000000000000000000000000000D4
:102D000000000000000000000000000000000000C3
:102D100000000000000000000000000000000000B3
:102D200000000000000000000000000000000000A3
:102D30000000000000000000000000000000000093
:102D400000000000000000000000000008B50D4871
:102D500008F090FA0C4808F08DFA0021852003F065
:102D6000A5FE0121852003F0BBFE4FF4FA7009F0A7
:102D700059FD0021852003F0B3FE4FF4FA7009F0ED
:102D800051FDEEE7040834081808340840B1036E1A
:102D900023B9C06DB0FA80F0400970470020704739
:102DA00001BEF4E740B1836D23B9406DB0FA80F005
:102DB000400970470020704701BEF4E720B18268E7
:102DC0000179006801F00ABD01BE826801790068DE
:102DD00001F004BD08B50B4658B10179826800685E
:102DE0001BB101F059F9002008BD01F0C9F900201C
:102DF00008BD01BEF1E700BF2DE9F04F2DED048BBA
:102E000089B004910692002800F0B580049B03B9B4
:102E100001BE03790593836809EE103A03681846EA
:102E200009EE903A01F0A4FC01F0CAFB00B901BE22
:102E3000049DB0FBF5F407940BF08CFB8246204612
:102E40008B460BF087FB0B4602465946504643EC37
:102E5000182B0BF023FD06460F46059BCDE90267B4
:102E6000012B69D928460BF075FB80468946304610
:102E7000394642464B460BF077FE002648B927E01C
:102E80002046294642464B460BF06EFE00B31E2EEE
:102E90001ED8771C38460BF05DFB0022374B0BF039
:102EA000D3FB53EC182B0BF019FA02460B46504695
:102EB00059460BF0F3FC42464B4604460D460BF0D8
:102EC00053FE0028DCD03E461E2ECDE90245E0D957
:102ED000DDE902010BF052FE04990246012000F0E8
:102EE000C9FB069B0028B8BF404283421ED3059C05
:102EF00019EE102A214619EE900A01F041F9079BBC
:102F000019EE102A214619EE900A0096013B00F0B6
:102F1000DFFF19EE102A19EE900A059901F0BCF8AE
:102F2000002009B0BDEC048BBDE8F08F144809B057
:102F3000BDEC048BBDE8F08F0BF020FE0499024637
:102F4000012000F097FB069B0028B8BF4042834257
:102F5000ECD3059C19EE102A214619EE900A01F0D7
:102F60000FF9079B19EE102A214619EE900A013B32
:102F700000F0EEFECDE701BE48E700BF0000A03F35
:102F800000020204012238B5437812FA03F328D074
:102F900003784268082B26D8D169D940C90720D5C3
:102FA000116C5C00E14001F0030C614684685569D6
:102FB00001259D40556152698CB10CF1FF3CBCF17B
:102FC000010F0AD9082B426800D901BE1169D94006
:102FD00001F00101C1F10201C9B2C068A04700209F
:102FE00038BD0B4838BD01BED169D940CC07F8D5F2
:102FF00003784268082BD3D901BE116C5A00D14026
:1030000001F0030C6146D0E9012401BECFE700BF07
:103010000006010480B100231529036041709BBFA5
:1030200001F5050101F500710449C90143608360A0
:10303000C36002704160704701BEECE7000081424E
:1030400070B504460E4615460BF0D2FFC4E9026582
:10305000BDE870400BF0B4BF70B490F800C0446895
:10306000BCF1080F2CD901BE01266369037806FA6A
:103070000CF64568082B6661646900D901BE032916
:1030800000D901BE5B0001F0030101FA03F4032142
:1030900001FA03F3296C21EA03012143296404782E
:1030A0004068082C00D901BE0121836902FA04F5A9
:1030B00001FA04F223EA02022A43826170BC7047DB
:1030C000012505FA0CF56369656165696346254666
:1030D000D5E700BF08B50BF053FF002008BD00BFC7
:1030E000F8B504460D4617461E46002832D045B3B3
:1030F00057B32B6863B33822002120460AF01EFE26
:103100002B68236056B3C4E901762B7AFF2B05D0D8
:10311000DB0103F1854303F58033A3616B7A2377E9
:10312000AB7A84F82030EB7AFF2B05D0DB0103F17A
:10313000854303F5803363622B7B002084F82830BD
:10314000F8BD01BE002FD4D101BE2B68002BD2D117
:1031500001BED0E701BE002DCAD1F2E76E68D2E70A
:103160002DE9F04F04460D46914683B0002869D002
:103170002368002B64D0A3685B681A68002A5BD0C0
:103180005B68002B56D06368002B51D0206B38B1A0
:10319000FFF7FCFD20B9904D284603B0BDE8F08F45
:1031A00063685B68DA07F6D42368002B00F053826B
:1031B000206B18B1FFF7F6FD0028ECD063681B68A0
:1031C000DB07E8D42368D3F80822D3F80872C2F3E7
:1031D0000802C7F3C037BF18DDD1A669002E00F082
:1031E000D88194F81CC0BCF1070F40F2DE8101BE0B
:1031F000A069217F794A964200F0CF8180329642C1
:1032000000F0CB818032964200F0C781744A96422A
:103210001AD08032964217D08032964214D006F1EE
:103220003D4202F5FE02D20902F18562120117E069
:1032300001BEABE701BEA6E701BEA3685B689FE7DE
:1032400001BE98E701BE93E74FF4802206F13B46AA
:1032500006F53906B31A634E06EBD31302EB0312DD
:10326000BCF1030F00F2B48112684FEACC0822FAD5
:1032700008F808F01F08072940F2A38101BE0123C6
:10328000227F03FA01F1072AA369816000D901BEF8
:1032900052498B4200F0838180318B4200F07F8164
:1032A00080318B4200F07B814D498B420ED08031C2
:1032B0008B420BD080318B4208D003F13D4303F5A4
:1032C000FE03DB0903F185631B010BE04FF4802053
:1032D00003F13B43434903F539031B1A01EBD313B5
:1032E00000EB0313032A00F263811F21D2009140F7
:1032F0001A6822EA01021A60666A002E00F08A80CB
:1033000094F828C0BCF1070F40F2978101BE606AB3
:1033100094F82810314A964200F043818032964258
:1033200000F03F818032964200F03B812C4A964269
:103330000ED0803296420BD08032964208D006F1F1
:103340003D4202F5FE02D20902F1856212010BE054
:103350004FF4802206F13B4303F53903214E9B1ABB
:1033600006EBD31302EB0312BCF1030F00F2398119
:1033700016684FEACC0326FA03F3072903F01F0669
:1033800040F23A8101BE012394F8282003FA01F1AA
:10339000072A636A816000D901BE10498B4200F0A0
:1033A000028180318B4200F0FE8080318B4200F040
:1033B000FA800B498B4217D080318B4214D0803178
:1033C0008B4211D003F13D4303F5FE03DB0903F10A
:1033D00085631B0114E000BF03160204000047448C
:1033E00000004B44006444044FF4802003F13B434D
:1033F0009C4903F539031B1A01EBD31300EB0313AC
:10340000032A00F21D811F21D20091401A6822EA8E
:1034100001021A600021206800F08EFCA368D3E945
:10342000000213689847236882461B6844F62062AE
:1034300003F00F0303FB055103F1010BA368019196
:10344000D3E900056B6898470546A0B9A368D3E99E
:10345000000213689847024601990120019200F08A
:1034600009F944F620630028B8BF40429842019A07
:1034700040F3EF807C4DA36844F62062D3E900015D
:103480004B6851469847B9F1000F03D0BAFBFBF3E4
:10349000C9F80030A369002B38D0227F072A00D951
:1034A00001BE72498B4276D080318B4273D080311D
:1034B0008B4270D06E498B420ED080318B420BD044
:1034C00080318B4208D003F13D4303F5FE03DB0955
:1034D00003F185631B010BE04FF4802003F13B43B4
:1034E000604903F539031B1A01EBD31300EB0313F7
:1034F000032A00F289801F21D20008FA02F89140C5
:103500001A6822EA010242EA08021A60636ABBB33F
:1035100094F82820072A00D901BE54498B4219D0BB
:1035200080318B4216D080318B4213D050498B4270
:103530000ED080318B420BD080318B4208D003F10A
:103540003D4303F5FE03DB0903F185631F010BE037
:103550004FF4802703F13B43424903F53903DB1B5A
:1035600001EBD31307EB0317032A5AD81F21D2000C
:1035700006FA02F391403A6822EA010213433B60E3
:1035800028462268136843F00043136003B0BDE887
:10359000F08FB846B0E60020A0E7002256E60020F3
:1035A00096E60022D6E6002020E76146304621E676
:1035B0001F21043AD20091405A6822EA01025A605F
:1035C0009AE601260A4606FA01F1034681605FE6A3
:1035D0005268ACF10403DB0022FA03F808F01F087C
:1035E00049E65668ACF10403DB0026FA03F3072929
:1035F00003F01F063FF6C6AE4FF0010C0A460CFA68
:1036000001F103468160C8E61F21043AD20008FA9E
:1036100002F891405A6822EA010242EA08025A601E
:1036200074E71F21043AD20006FA02F391407A6847
:1036300022EA010213437B60A2E76146304669E655
:103640001F21043AD20091405A6822EA01025A60CE
:10365000E0E6924617E701BE6368002B7FF4A8AD51
:1036600001BEA5E5006444040216020400004744BC
:1036700000004B44012805D002280CD048B101BEFF
:103680000020704711488B1A00FB03F393FBF1F005
:103690007047881A70478B1A10B56EEB0E0ED8184B
:1036A0004EEB0E0CC0184EEB0C0C0A4644014FEAD0
:1036B0004C1141EAD06100194CEB0101C0184EEBEE
:1036C000010100230BF07AFA10BD00BF40420F0049
:1036D000014B1860704700BF78DB0B24214B10B4FE
:1036E000984217D08033984214D08033984211D03A
:1036F0001D4B984233D08033984230D0803398426B
:103700002DD000F13D4202F5FE02D20902F18562A0
:1037100011010DE0002100F13B43144C03F5390386
:103720005B1ADA0904EBD31301EB031102F1856292
:103730000023FF2402F580721201146043665DF8D5
:10374000044B8366C366036043648364C364036499
:10375000836103650B604B600367436770474FF4F9
:103760008021D8E70000474400004B440064440433
:10377000C2690346002A07DA0A0C120402B101BE2C
:1037800089B20020596070470048704701008A00E4
:1037900003460068002808DA080C0004DA6000B16B
:1037A00001BE89B20020996070470148704700BF90
:1037B00001008A001F2832D870B50C4619B10A687A
:1037C00012F01F0301D0184870BD411E1E29174971
:1037D00027D8050951F8251000F00F0001EB401023
:1037E000134E5209306009D000256268043A42F84D
:1037F000045F21680133B3EB511FF8D30021FFF7B9
:10380000B7FF224600213068FFF7C2FF28B9014602
:103810003068FFF7ADFF0028D6D0064870BD0248DB
:1038200070470868DCE700BF03018A0040083408DD
:103830007CDB0B2401018A002DE9F041314D82B07F
:103840002A688AB3D36820F0805C33F080532BD091
:103850001C6864451FD9012700F01F06C00007FA45
:1038600006F656BF5F689F6827F080574FEA5C14E2
:10387000002F40D011B31368002B1ADA57F8243008
:1038800016EA03050CD11E431046294647F824606A
:10389000FFF76EFF00E01C4D284602B0BDE8F08146
:1038A00000211046FFF764FF184D284602B0BDE81E
:1038B000F081174D284602B0BDE8F08101910BF070
:1038C00097FB2B6880461A680199002A0BDA57F893
:1038D000242016EA020510D13243184647F8242066
:1038E000FFF746FF00E00A4D40460BF069FB284613
:1038F00002B0BDE8F081074DCEE71846FFF738FF6C
:10390000024DF1E77CDB0B2404018A0002018800F0
:103910000301880003018A002DE9F041304E32682E
:103920009AB3D36820F0805C33F080532DD00C46DE
:103930001968614522D9012700F01F018F40C1009D
:1039400056BF5B68D3F8088023F080584FEA5C15B7
:10395000B8F1000F3CD004B31368002B19DA58F803
:10396000253017EA03010DD023EA07030021104692
:1039700048F82530FFF7FCFE002400E0194C2046F3
:10398000BDE8F0811046FFF7F3FE174C2046BDE876
:10399000F081164C2046BDE8F0810BF029FB33681E
:1039A00006461A68002A0CDA58F82520174211D06A
:1039B00022EA07022146184648F82520FFF7D8FEDC
:1039C00000E00A4C30460BF0FBFA2046BDE8F081DF
:1039D000074CD4E721461846FFF7CAFE024CF1E730
:1039E0007CDB0B2404018A000201880003018800AB
:1039F00003018A008022034610B40468D0F808024C
:103A0000C4F3813CC0F3080022FA0CF2904214BFC8
:103A1000012000205DF8044B18BFC3F84012704726
:103A2000002800F07081002900F06D812DE9F0433D
:103A30000B78022B00D901BE4B7B023B062B00D931
:103A400001BE8B7B1BB1023B012B00D901BE91F85B
:103A50002130012B00D901BE91F82830012B00D96B
:103A600001BE0B78012B40F220818B7F23B14B6884
:103A7000013B062B00F21E818B68053B042B00D90D
:103A800001BE4B69FF2B00D901BE8B69FF2B00D90A
:103A900001BE8B7C23B10B78002B00F0368101BE78
:103AA0008B6B23F4366323F00D0303B101BE0B6C63
:103AB00023F4EE6323F0030303B101BE0B78022B62
:103AC00000F019814B68013B03F00F030C7F8D68F8
:103AD000002C14BF4FF480340024082D88BF43F419
:103AE00080432343802443F00073036003684D6BDD
:103AF000C3F3813324FA03F39D4200D301BE802334
:103B00000468CD6BC4F38134E3409D4200D301BE11
:103B1000802304684D6AC4F38134E3409D4200D39E
:103B200001BE0C780D7C230603F0407303644B7FC9
:103B300091F80DE0002B8B7C14BF4FF040094FF043
:103B40000009002B4B7C14BF4FF480684FF0000835
:103B5000002D14BF4FF480770027002B14BF4FF4C3
:103B600000760026CD6A91F80EC06B1E0EF1FF3E66
:103B70001B040EF0070E4FEA0C1C03F470230CF02C
:103B8000300C43EA0E0343EA0C0343EA090343EA19
:103B900008033B43334391F830608364836C0EB178
:103BA00043F080730F7BCE7B002F83640CBF002318
:103BB0004FF48073002E40F09B80022C0CBF4FF41A
:103BC00000784FF000088E68013E06F01F06334370
:103BD00043EA0803C0F800338B6991F814801B0492
:103BE00003F47F0343EA0803C0F81033D0F800332E
:103BF00003F01F0303339D425ED3102D5CD8CB7FAF
:103C0000002B6FD0012C00F089804EEA0C03436436
:103C10002FB146F48076012C01D146F4803691F81C
:103C2000343091F82040C0F80062C0F8043391F8B5
:103C30002130002C14BF4FF0007C4FF0000C012B02
:103C400091F828300CBF4FF080770027012B0CBF74
:103C50004FF48036002640F66D3540F2737491F8CB
:103C6000243043EA0C033B43334303658B6B1D4015
:103C70000B6C234091F83C40C0F80442C0F8C85F88
:103C8000C0F8883F002A3BD00023887F2849536032
:103C900082F8300013601846136291639360D3601A
:103CA000D361D3625363BDE8F0834B68083B082BB4
:103CB0007FF6E2AE01BEDFE601BE91F80DE091F8BD
:103CC0000EC08E68CB7F0EF1FF3E4FEA0C1C013E0A
:103CD0000C780F7B0EF0070E0CF0300C06F01F0670
:103CE000002B8FD14EEA0C034364002F93D090E752
:103CF0004FF4007867E78B7F002B3FF4E7AEE1E6F7
:103D00001046BDE8F0830B4870478B68092B7FF4A1
:103D1000C6AE8B7B002B3FF4C3AEC0E64EEA0C0C64
:103D20004CF480734364002F7FF473AF75E700BFDA
:103D3000EFCDAB000160AA00036823F000430360ED
:103D400021B100234B600B600B62CB62704700BF58
:103D50004FEA102CC0F30740012810B511D901BE5D
:103D60004FF0060E5FFA8CFCE64500D801BE89B91B
:103D7000A8B1012811D1ACF1020101290DD80146E9
:103D800014E0002814BF4FF0060E4FF00A0E5FFA41
:103D90008CFCE9E7012900D1E8B11F4810BD0CF106
:103DA000FF310829F9D81D4C54F821108A42F4D269
:103DB000FF2BF2D8400602EBCC2200EB820202F18C
:103DC000844202F582221168002021F47F4141EAF9
:103DD0000323136010BDBCF1010F1AD0BCF1080F12
:103DE000DBD18A42D9D2B3F5803FD6D202EBCC2CBC
:103DF0004FEA8C0C0CF1844C0CF5822CDCF800247E
:103E000022F47F0222F47F4242EA0323CCF80034FA
:103E100010BD0421E5E700BF01004A00A4083408F2
:103E2000C0F30743012B4FEA102028D901BE4FF001
:103E3000060CC0B2844500D801BE012914D901BEC8
:103E40001BB9012840D008283AD001BE5B0602EB1E
:103E5000C02003F1844303F5802300F5A06053F8EC
:103E60002000C0F30F2070470029E9D110B473B1CE
:103E7000012B14D1811E012911D819460DE0002B08
:103E800014BF4FF0060C4FF00A0CC0B2D2E7411E2F
:103E9000082904D80D4C54F821108A4200D301BEE1
:103EA0005B0603F1844302EBC02003F5802300F599
:103EB000806053F820005DF8044BC0F30720704782
:103EC00001218A42C2D3C0E70421FAE7A4083408DA
:103ED0004FEA102CC0F30740012800B519D901BEE4
:103EE0004FF0060E5FFA8CFCE64500D801BE0229B1
:103EF00018D003290AD148B9BCF1010F06D12AB95B
:103F0000B3F1807F02D201991F2940D929485DF879
:103F100004FB002814BF4FF0060E4FF00A0E5FFAA4
:103F20008CFCE1E730B10128F0D1BCF1010FEDD1FB
:103F3000032106E0BCF1010F03D0BCF1070FE5D16E
:103F400001219142E2D9B3F5803FDFD201991F29C7
:103F5000DCD8410602EBCC2201EB820202F1844262
:103F600002F58222D2F80018002021F47F0121F40A
:103F70007F4141EA0323C2F80038D2F800380199A2
:103F800023F0F80343EAC103C2F80038BFE70A4947
:103F90001046D1F8002CD2B242EA0323C1F8003C0B
:103FA000D1F8003C019A23F0F80343EAC203C1F8B8
:103FB000003CACE701004A00003004424FEA102CFC
:103FC000C0F30740012810B52AD901BE4FF0060EF4
:103FD0005FFA8CFCE64500D801BEA1F1020EBEF1ED
:103FE000010F26D901BE02292AD0032917D110B901
:103FF000BCF1010F42D001BE410602EBCC2001EB27
:10400000800000F1844000F58220D0F8002C120AD4
:104010001A60D0F8003C029AC3F3C403136010BDC9
:10402000002814BF4FF0060E4FF00A0E5FFA8CFC0A
:10403000D0E7002BD6D0029C002CD3D00229D4D1BB
:10404000F8B1012815D001BE410602EBCC2001EBEE
:10405000800000F1844000F58220D0F80028C2F3EF
:104060000F221A60D0F80038029AC3F3C403136019
:1040700010BDBCF1010FE6D1032109E0002ABBD03D
:10408000B9E7BCF1010F03D0BCF1070FDBD101216F
:104090009142D9D8D7E700BFC0F30743012B4FEABD
:1040A000102035D901BE4FF0060CC0B2844500D8AF
:1040B00001BE032934D810B4F1B99C46002B47D077
:1040C000012B21D1831E012B1ED863469A421BD29D
:1040D000D3B243EA01224FEA4C6342F0034203F1B8
:1040E0008443410303F5802342F47F025A500020A9
:1040F0005B585DF8044B7047012913D19C461BB9EE
:10410000012834D008282AD01B485DF8044B70479A
:10411000002B14BF4FF0060C4FF00A0CC0B2C5E7DD
:1041200015487047022909D19C46D3B1012BEBD128
:104130000128E9D103239342CAD8E5E70329E3D153
:10414000002BE1D10128DFD1002ADDD19446BFE761
:10415000431E082BD8D8094C54F82330B6E70B4639
:10416000B4E7012805D00728CED10123E3E70423D3
:10417000ACE70B46DFE700BF01004A00A4083408A3
:1041800030B4C0F30744012C4FEA102035D901BEEA
:104190000623C0B2834200D801BE03291FD809BB41
:1041A0002346002C3FD0012C19D1841E012C16D897
:1041B0001C46A24213D230BCD2B25B0642EA0121B5
:1041C00003F18443420303F5802341F08041002042
:1041D00099507047032902D10CB901281FD030BC77
:1041E0001948704701290ED12346002CF7D1012828
:1041F00026D00828F3D10C46DBE7002C14BF062399
:104200000A23C0B2C6E70229E4D1234694B1012CA7
:10421000E5D10128E3D103249442CCD8DFE7002A7A
:10422000DDD11346C7E7441E082CD8D8074D55F8F2
:104230002440BEE7012805D00728D0D10124EBE7B0
:104240000424B6E70C46E7E701004A00A408340856
:10425000014B1860704700BF84DB0B24052801D98F
:1042600001BE01BE800000F1844000F5800000F531
:104270008053D3F8002202F00703072B92B208D034
:10428000520732D4013B022B40D8DFE803F030273D
:10429000250040F21112D0F8003103F01F0343F45F
:1042A0008073934226D040F21312934208D1184BE8
:1042B000D3F87033002BACBF00204FF400407047A0
:1042C000B3F5887F11D1124BD3F88033002BACBFEC
:1042D00000204FF4004070470E4870470C4BD3F855
:1042E000683303F00303032B0DD0002070470A4B03
:1042F00018687047064BD3F8940310F0040018BFF9
:104300004FF400407047054B1868704704487047E9
:104310000010404200127A0080DB0B2484DB0B2467
:1043200080F0FA0270B5012898B001D901BE01BE33
:1043300041F2086C264943011944D1F80026D1F80E
:1043400004468DF8002024F07F440294C2F3042434
:104350008DF8014003F18443C2F30444C2F30172B7
:1043600003F580038DF802408DF80420012853F8EE
:104370000C3000D901BED1F80036002B02DB002042
:1043800018B070BD9DF80430022BF8D09DF80110D4
:1043900011B9084618B070BD9DF80240002CEED04F
:1043A0009DF80050029EFFF759FF8446A1FB0423AD
:1043B00029068C19A4FB00014FEA152545F10005DB
:1043C0000CFB05110AF04AFC000E40EA0120D7E779
:1043D00000104042F8B5044600B101BE4B683422DB
:1043E0000021184609F0AAFC03464749A0010144F0
:1043F000D1F8002841F60806C2F302245C70C2F32B
:1044000002349C70C2F301741A70DC70D20FD1F8C0
:1044100004181A7141F60C02C1F314049C6041F6B1
:10442000100441F6140541F6180E41F61C0CC1F3B8
:10443000425700F18440C1F3036100F580001F730F
:1044400059738159825801F00106C1F34071D97343
:1044500002F01F011974C2F344115974C2F3C2214E
:104460009974C2F30341D974C2F302511975C2F3AE
:10447000C351C2F3C3629A755975015900F5C1540D
:1044800001F01F02DA75C1F344121A764259C1F3E2
:104490000031DA6150F80E205976C2F31201196228
:1044A00050F80C10C2F3005C01F00100C2F300628E
:1044B00083F825209E7383F824C083F826002268A1
:1044C000C1F30040C1F34004C1F3005183F8280058
:1044D00083F8291002F00700C2F3001183F8274087
:1044E00083F82A00C2F3C004C2F30C4083F82C10F6
:1044F000C2F34071D20FD88583F82B40002083F897
:10450000301083F83120F8BD0010404270B50446E9
:1045100090B0C8B101BE03AB34220021184609F0A7
:104520000DFC0022034601A92046CDE90123FFF737
:1045300051FF01BE214A04F160039B01D358002BB7
:1045400010DB002010B070BD03AB014634221846CA
:1045500009F0F4FB034601A92046CDE90143FFF72A
:1045600039FFE7E7029BDA78022AEAD01A78A01C22
:104570005D789E789968541CFFF770FE013584467B
:10458000013639B9A5FB062304FB0CF00AF066FBE3
:1045900010B070BD60054018A0FB0C014FEAD42498
:1045A00044F10004A5FB06230CFB04110AF056FBA2
:1045B000400D40EAC12010B070BD00BF0000404275
:1045C0000D2810B55FD901BE474A00F5926352F835
:1045D0002300C0F30320441C01BE434A52F82300C9
:1045E00000F00F00052802D901BE01BE01BE820005
:1045F00002F1844202F5800202F58053D3F80032C2
:1046000099B203F00703072B08D04A074DD4013BAA
:10461000022B66D8DFE803F04B42400040F2111154
:10462000D2F8003103F01F0343F480738B424CD067
:1046300040F2131293420ED12C4BD3F87033002B5F
:10464000ACBF00234FF40043022811D903EB540000
:10465000B0FBF4F010BDB3F5887F26D1234BD3F81F
:104660008033002BACBF00234FF400430228EDD869
:1046700020D11E4AD2F80028002AE7DA0020FFF7EE
:1046800045FF0346E2E7184A00F5926352F823001B
:10469000C0F30320441CA0E7154BD5E7134BD3F818
:1046A000683303F00303032B18D00023CCE7114B2E
:1046B0001B68C9E70C4900F1B00252018A58002A70
:1046C000C4DAFFF72FFE0346C0E7084BD3F8943354
:1046D00013F0040318BF4FF40043B5E7064B1B6803
:1046E000B2E7064BB0E700BF000040420010404276
:1046F00000127A0080DB0B2484DB0B2480F0FA02AA
:10470000022810B518D901BE023801BE174C80012D
:104710000444D4F80038012023F0405343F0005300
:10472000C4F800380AF05CFCD4F80038002023F00C
:104730000043C4F8003810BD15D00C4C40010444AF
:10474000D4F80036012023F0405343F00053C4F85E
:1047500000360AF045FCD4F80036002023F0004370
:10476000C4F8003610BD0020D0E700BF0010404262
:1047700030B510F47F0F8BB0C0F3072314D1092B91
:1047800024D8EC46134C0AAA02EB830E0FCCACE8FB
:104790000F000FCCACE80F0094E803008CE8030096
:1047A0005EF8280C0BB030BD052B0FD8EC460A4D37
:1047B0000AAA02EB83040FCDACE80F0095E80300D2
:1047C0008CE8030054F8280C0BB030BD4FF0FF30DC
:1047D0000BB030BD7C083408640834082DE9F04182
:1047E000030C13F0FE0F04460D4690468EB0C0F346
:1047F000072EC0F3074700D001BEA7B9BEF1090FCD
:1048000070D901BE00234FF0FF300393002D40F01C
:10481000B280F7B90EF1FF3EBEF1080F3BD85A4BFC
:1048200053F82E701CE0BEF1050FEAD80023DFF824
:1048300060C104AE0393BCE80F000FC69CE8030000
:1048400086E803000EAB03EB8E0353F8280C002D13
:104850007BD1012F1FD1AEF1020EBEF1010F1AD88C
:10486000B84518D2431C5FD0FFF7AAFE0646424661
:1048700029462046FFF7D4FA013006EB5006B6FB76
:10488000F0F630460EB0BDE8F081032D03D117B924
:10489000BEF1010F66D001BE411C45D0FFF790FE6E
:1048A000012D0646E3D9AB1E012BEAD8002704AB45
:1048B000424629462046009303AB20240497FFF785
:1048C0007DFBDDE903323946013302EB4312500828
:1048D000E6FB04013B460AF0C1F9064630460EB03D
:1048E000BDE8F081294E0DF1100C0FCEACE80F00A1
:1048F0000FCEACE80F0096E803008CE803000EAB87
:1049000003EB8E0353F8280C0397002D82D0012D62
:104910000FD1BEF1010F35D0BEF1080FBBD101237D
:104920009845B8D2431C9FD1002630460EB0BDE852
:10493000F081022DA9D1BEF1010F21D0BEF1070FE8
:10494000A9D10123434510D8A5E7012DA3D0022DFD
:104950009BD1002FEFD0012F9DD1BEF1010F9AD135
:104960000323EFE7B8F1000F95D1421CDCD0FFF72D
:1049700027FE06469AE7012DE9D1002F8BD1C8E723
:104980000223DFE70423CBE7A40834087C083408BB
:1049900064083408002831D0436810B4072B01D9CB
:1049A00001BE4368B0F90020002A10DB5B0102F170
:1049B0006040DBB200F5614080F800331148124BD3
:1049C00084689C420FD000205DF8044B70470F486C
:1049D00002F00F045B012044DBB2037609480A4B66
:1049E00084689C42EFD180688342ECD141B110329F
:1049F00000205DF8044B43F82210704704487047CC
:104A000001BEF4E700ED00E000D00B24FCEC00E078
:104A1000010056000B4B0C4A9B68934207D141B1F1
:104A200000F1100352F8230042F8231070470020D1
:104A3000704701BE00F1100352F8230042F8231022
:104A4000704700BF00ED00E000D00B24082820D9FB
:104A500001BE082902D901BE082818D901BE0829BB
:104A600015D8000100F1844202F5820250685368B3
:104A700080B21B0CCB405B00C84003F0020300F087
:104A800001000343023B012B09D90A48704701BECC
:104A9000E7E70829E5D901BE0828DFD8F7E70123B1
:104AA00010B4146803FA01F1214300205DF8044BAF
:104AB00011607047FF00420008B100F0EBBA01BE80
:104AC00000F0E8BA08B538B10A2900D901BEC9B268
:104AD00000F0CEFA002008BD01BEF5E7F0B54B4D61
:104AE00083B0AC68002C37D00020494E494FA368F2
:104AF000DB0726D4E3680121D3E90032CDE9003297
:104B0000684623689847346064693346E4B1B84224
:104B1000EDD11B68404A936083B11C6974B1A368EE
:104B20009B076AD4E3680221D3E90032CDE9003261
:104B30006846236898472469002CF0D1354803B0B3
:104B4000F0BD6469002CD2D1324B98425CD0002277
:104B5000314B9A60002854D10AF04AFAAC680646F4
:104B600084B12B4FA368590743D4E3680421D3E9E8
:104B70000032CDE900326846236898473C6064699A
:104B8000002CEFD1254B26499A6842F01B029A600F
:104B9000D1F8AC28C1F8AC289A6822490A439A6037
:104BA0009A680A439A609A680A439A609B6830BF81
:104BB00030460AF005FAA8680028C0D004464069CB
:104BC0000028FBD1A3681A070ED4E3680821D3E9B3
:104BD0000032CDE900326846236898472469002CEA
:104BE000F0D1002003B0F0BD2469002CEAD10020F0
:104BF000F8E76469002CB5D1C4E72469002C8ED194
:104C00009CE7034B1B6887E7014B82E7ACDB0B2477
:104C1000A8DB0B24FF00420088DB0B24001040427D
:104C200000004042003A0280F0B5072804460D46D5
:104C300083B000D901BE6B1E012B41D9042D1BD0BE
:104C4000082D00D001BE3B4B53F824301C465B6955
:104C5000002BFBD10020A3681D422CD1E368226801
:104C6000D3E9006329466846CDE90063904724698B
:104C7000002CF0D103B0F0BD2E4B53F82440002C93
:104C800032D000202C4DA3685B070FD4E368226864
:104C9000D3E9006304216846CDE9006390472C60A6
:104CA0006469002CE6D0A3685B07EFD56469002C2B
:104CB000E9D103B0F0BD2469002CCCD103B0F0BD24
:104CC0001C4B012D53F8246007D17EB930460022D9
:104CD0001A4B43F8242003B0F0BD174B1868002886
:104CE000C8D00469002CB5D12046C3E70020124D7E
:104CF000134FB368DA0714D4F368326819685B6835
:104D0000009101930121684690472E6076692B46F9
:104D100056B1B842EDD1094A1B68094842F824301F
:104D2000A8E77669002EE4D1054B9842CFD1024B1B
:104D3000F1E700BFACDB0B24A8DB0B2488DB0B24E2
:104D4000FF0042002DE9F04F054683B07548FFF79C
:104D5000B3FE052812D8744B012D1F5C3E4600D9C6
:104D600001BE012F40F0D580704B3E461B6898066F
:104D70000ED46F4C204603B0BDE8F08F012D3ED914
:104D800001BE00273E4601BE684B1B689806F0D561
:104D9000DFF8AC8158F82690B9F1000F41D000241B
:104DA000DFF898A1DFF888B1D9F80830D90729D4FD
:104DB000D9F80C300121D3E90032CDE90032684640
:104DC000D9F800309847CAF80090D9F814905346A3
:104DD0000446B9F1000F1AD05845E5D1554A1B6871
:104DE000534C42F8263058F82630002BC2D002210E
:104DF0003846FFF719FF204603B0BDE8F08F0027C3
:104E00003E46C0E7D9F81490B9F1000FCCD1484B19
:104E10009C4200F085800022464B43F82620002C5F
:104E2000E1D10AF0E5F858F82640824694B1DFF85F
:104E30000C91A3685A0763D4E3680421D3E90032D4
:104E4000CDE90032684623689847C9F80040646994
:104E5000002CEED1062F04D1344A936843F03B0373
:104E60009360354A136943F004031361BFF34F8F16
:104E7000731F012B0DD84FF0E020C16841F4700181
:104E8000C160D2F8881021F47001C2F88810BFF315
:104E90004F8F012D42D030BF012B0ED84FF0E021B3
:104EA000CB68254A23F47003CB60D2F8883043F4F2
:104EB0007003C2F88830BFF34F8F1F4A5046136902
:104EC00023F0040313610AF07BF858F8260090B130
:104ED000044640690028FBD1A3681B0714D4E3688B
:104EE0000821D3E90032CDE90032684623689847AB
:104EF0002469002CF0D10024204603B0BDE8F08FD7
:104F00006469002C95D1A5E72469002CE4D1002424
:104F1000F2E77B1F012B7FF637AF34E720BFBBE7FB
:104F2000064B5BE700104142C808340800104042BD
:104F3000FF00420088DB0B2400ED00E0A8DB0B241F
:104F4000ACDB0B2408B50AF053F8074B07499A6805
:104F50000A4042F468529A609A680A409A609B68D4
:104F6000BDE808400AF02CB800104042FF00FC0FDA
:104F70000122024BC3F8E42B704700BF00104042EF
:104F800038B54FF0E0231B69DB0308D5044C04F16E
:104F9000140554F8043B03B19847AC42F9D138BD2D
:104FA000CCDB0B244FF0E022136943F002031361C2
:104FB000704700BFB1F1807F38B50C46054600D37D
:104FC00001BE042D2DD901BE0022204B2049C3E98A
:104FD0000022C3E902221A614FF0FF30FFF71AFDE9
:104FE00001BE4FF0E0221B4B2D0605F04075C3F8C3
:104FF0002051136923F004031361B4F1807F00D3BF
:1050000001BE4FF0E023002224F07F445C619A61EE
:105010001A6942F002021A611A6942F001021A6129
:1050200038BD0022094B4FF0FF30C3E90022C3E92D
:10503000022207491A61FFF7EDFC042DD1D14FF090
:10504000E022136943F004031361D6E7CCDB0B24A1
:10505000814F340800002942034604289DBF034ABB
:1050600052F8200042F8231000207047CCDB0B24BC
:1050700068B10A2900D901BE036823F00F03194360
:1050800041F4807101608368DB05FCD5704701BE87
:10509000EFE700BF18B1006800F00F00704701BED5
:1050A000006800F00F00704710B4A1B31F2805D9A5
:1050B00001BE20282DD11A4B5C680AE0431E1E2B2E
:1050C000174B2AD8020953F8224000F00F0004EBD6
:1050D0004014D1E90032206800280BDA53EA0200BC
:1050E00004D0013B42F1FF32C1E9003200205DF8FB
:1050F000044B704753EA020007D0013B62F1000203
:1051000053EA0200C1E90032E5D106485DF8044BDC
:1051100070470024DDE701BEC8E71C68D9E700BF7F
:105120004008340802005E0988B34268F8B50F2AC7
:1051300000D901BE41F20C04154BD10853F82130BF
:1051400002F0070203EB42131A591D5903F580516F
:105150002B0C92B21B0413430B604FF6FF760B68C7
:105160002D0C02B186618DB10024012700F1540697
:1051700007FA04F32B4206D056F82420536813B1E3
:105180000321906898470134102CF1D1F8BD704785
:10519000400834082DE9F04F87B0019078B3836858
:1051A0000F2B00D901BE3C49DA0851F8221003F058
:1051B0000703049101EB43115B0141F20C020593DB
:1051C000002318468B584FF001089BB29946039371
:1051D000B9F1000F0AD0012303FA08F319EA030F0B
:1051E00010D108F10108B8F10E0FF1D138B9DDE99D
:1051F00004321344039A03F580531A601B6807B006
:10520000BDE8F08F29EA0309019B4FEA48171C33D8
:1052100053F82840002CE4D01F4B82465B68CDF841
:1052200008801F4419E0D4F800B0BBF1000F20D073
:10523000D4E90182D66AFEB10023256A19463540B9
:105240003846D362F6B2EDB2FEF792FAE66115B1D6
:1052500029464046D84764693CB13B68002BE2DBF5
:105260006469DFF838A0002CF7D15046DDF80880DB
:10527000B7E7A368DD6A35B900213846FEF778FA4A
:105280000023E361E7E759463846C3F82CB0EDB296
:10529000FEF76EFAE561DEE7400834080B005E09B0
:1052A0002DE9F04706460C461546002879D0002C1B
:1052B00075D0002D70D02B78A3F111020C2A6BD879
:1052C000EA68802A68D86A68A2F10901062963D8C9
:1052D000A968A1F1090006285ED88A425CD003F0D3
:1052E0000F0A3360594B4FEA4A19D3F8048059F832
:1052F000083008EB4A1A002B05DA00215046CAF89C
:105300000C10FEF735FA4FF4A6720021204608F083
:1053100015FD231D5B07F46168D100224FF6FF7372
:10532000C4E92923C4E93D23C4E92B23C4E93F236D
:10533000C4E92D23C4E94123C4E92F23C4E943234D
:10534000C4E93123C4E94523C4E93323C4E947232D
:10535000C4E93523C4E94923C4E93723C4E94B230D
:10536000C4E93923C4E94D23C4E93B23C4E94F23ED
:105370004FF6FF73E968C4E951337F29B36114D94B
:1053800001BEF369DB6813B90FE09B686BB15A6823
:105390009142FAD12E4800E02E48BDE8F08701BEC8
:1053A00087E701BE002C84D1F9E70027A7602760BA
:1053B000F36959F808206160D968BA42A160DC60DD
:1053C000C6E9044610DAD5E901124FF6FF70C6E9C6
:1053D0000112F060C3E9111250463946CAF80C3088
:1053E000FEF7C6F93846D8E73846D6E700234FF629
:1053F000FF72C4E92932C4E93D32C4E92B32C4E961
:105400003F32C4E92D32C4E94132C4E92F32C4E944
:105410004332C4E93132C4E94532C4E93332C4E924
:105420004732C4E93532C4E94932C4E93732C4E904
:105430004B32C4E93932C4E94D32C4F8F020C4F823
:105440004021C4F8EC30C4F83C3191E740083408FE
:1054500003005E0901005E092DE9F04F87B0F8B145
:1054600042680646E2B10368D3B15B687F2B17D868
:10547000B94B0C465B68C3F3080323B1D1E90013B1
:105480000B4340F0FA8010681F280ED901BE202877
:1054900040F0A780B14A736852681868019211E021
:1054A000AF4D284607B0BDE8F08F431E1E2BAB4B17
:1054B00000F2DF80020953F8223000F00F0203EB04
:1054C000421301932146FFF7EFFD0146002840F00B
:1054D000CB80336801985F6893F80080FEF748F945
:1054E00041463846FEF7A8F905460028D9D0D4E948
:1054F00000A973685B680F2B78D851464A46DFF8DD
:105500005CC24FEAD30E5CF82E0003F0070300EBF9
:10551000431B5B01039341F20C035BF8033051EA38
:105520000203029006D0A5F50803A3F58173012BB1
:1055300040F2BF800023CDE90433B9F1FF3F08BF3B
:10554000BAF1FF3F40F0E0804FF0000923463C46AF
:105550004F469946DFF810B2DFF804A2002F49D178
:1055600009F046FD0346414620460093FEF764F9E4
:105570007C4A05469042009B70D0013290426AD02E
:10558000002854D0D346184609F01AFDD9E9003254
:1055900053EA02013DD1D345E0D14C46A946704DB6
:1055A000049B002B6BD109F023FDDDE9023241F2AF
:1055B0000C01134441F2080259589A58B9F1000FEE
:1055C00009D1059C0C4206D0120C120403F580533D
:1055D00022431A601B6809F0F3FC284607B0BDE8B7
:1055E000F08F00227368019218686BE701BED4E95E
:1055F000001284E7012009F0F3FC73689F69D9E980
:1056000000323F1BB7FA87F753EA02014FEA5717F8
:10561000C1D0013B42F1FF32C9F80030C9F8042083
:10562000BBF1000FB7D14C46A9460025B8E7184694
:1056300009F0C6FCD9E9003253EA0201F3D0AB46C7
:10564000013B42F1FF32C9F80030C9F80420BBF138
:10565000000FA0D1E7E7DFF810B194E772680127E7
:10566000DFF80CB194618EE73F4D284607B0BDE8E6
:10567000F08F1B680020019324E73C4D11E709F0EF
:10568000B7FC03467268214610681C46FFF70CFD04
:1056900018B1204609F094FC85E772684FF6FF7652
:1056A000D3690146C3F8446101989661FEF760F83A
:1056B000EFE709F09DFC02467368214618680092E6
:1056C000FFF7F2FC009A30B10023CDE90433104615
:1056D00009F076FC31E7736841F2080CDA6901469B
:1056E000C2F844719F610122FF23CDE904235BF8D6
:1056F0000C3001981B0C1B0443F0FF034BF80C30DB
:10570000FEF736F8009AE2E70023A946164DDFF8C7
:1057100050B0AA463D461F4667B3012009F060FC21
:1057200073689F697F1BB7FA87F77F09D4E9003256
:1057300053EA02010DD0013B42F1FF32C4E90032CD
:10574000134306D0BAF1000F36D0DA45E4D14D4606
:1057500024E7554624E700BF00ED00E04008340888
:1057600001005E090201880005005E090C005E0967
:1057700004005E0909F03CFC0346414628460093BC
:10578000FEF75AF80D4A81469042009B0ED0013236
:10579000904208D000280CBF4FF0000ADA461846A5
:1057A00009F00EFCC2E7DFF818A0F8E772680127DD
:1057B000DFF810A09561F2E74D4635E70201880059
:1057C00005005E0904005E092DE9F04F044685B02E
:1057D000002877D04FF0FF304FF0FF316368CDE9FC
:1057E0000201002B69D02268002A66D052687F2A05
:1057F00063D8B04A5268C2F308021AB100200021EF
:10580000CDE9020118681F283FD8431E1E2BAA4B62
:105810006BD8020953F8223000F00F0203EB421359
:10582000019302A9FFF740FC0646002853D12368E4
:10583000014601985D6893F80090FDF799FFDFF845
:105840008882DFF880A249462846FEF765F8404581
:1058500083469A4B38D098422DD0002849D05746DD
:10586000DDE90213022973F1000317D200200021A1
:10587000CDE90201012009F0B3FB3E46BBF1000F68
:105880003AD0304605B0BDE8F08F01BE202827D1C0
:10589000894A6368526818680192C2E7012009F0DA
:1058A0009FFBDDE90231013B41F1FF31CDE90231DE
:1058B0000B43C8D1DEE7824FD2E7824E304605B0B7
:1058C000BDE8F08F01BE85E7012009F089FB304675
:1058D00005B0BDE8F08F7A4E304605B0BDE8F08FD8
:1058E00000226368019218689BE71B6800200193FF
:1058F00097E7012009F074FB636802A91868FFF7B5
:10590000D3FB06460028BCD16368DB69D3F8A82026
:10591000954200F0D981D3F8B020954200F0C281C1
:10592000D3F8B820954200F0AB81D3F8C02095425F
:1059300000F09481D3F8C820954200F07D81D3F81F
:10594000D020954200F06681D3F8D820954200F02F
:105950004F81D3F8E020954200F03881D3F8E82059
:10596000AA4200F02081D3F8F020954200F008818F
:10597000D3F8F820AA4200F0F180D3F80021954234
:1059800000F0DA80D3F80821954200F0C380D3F804
:105990001021954200F0AC80D3F81821954200F018
:1059A0009580D3F82021954272D0D3F828219542D2
:1059B0005CD0D3F83021954246D0D3F838219542B7
:1059C0002FD0D3F84021954218D0D3F84821AA42CD
:1059D00004D000210198FDF7CBFE52E7DB6C0F2BC2
:1059E00000D901BE344AD90852F82120FF2103F022
:1059F0000703803302EB43135960EAE7DA6C0F2A9E
:105A000002D901BE6368DB694FF400702A49D408EB
:105A100051F8241002F00702803201EB421250606C
:105A2000D3E7DA6C0F2A02D901BE6368DB694FF451
:105A300080702149D70851F8271002F00702803200
:105A400001EB42125060BCE7DA6C0F2A02D901BEAA
:105A50006368DB6980201849D70851F8271002F0E5
:105A60000702024401EB42125060A6E7DA6C0F2AEB
:105A700002D901BE6368DB6940200F49D70851F89D
:105A8000271002F00702803201EB4212506090E7CB
:105A9000DA6C0F2A02D901BE6368DB69202006494F
:105AA000D70851F8271002F00702803201EB4212AA
:105AB00050607AE700ED00E04008340803018800F8
:105AC00005005E0901005E0902018800DA6C0F2AF8
:105AD00002D901BE6368DB6910208449D70851F8F8
:105AE000271002F00702803201EB4212506058E7A3
:105AF000DA6C0F2A02D901BE6368DB6908207B4992
:105B0000D70851F8271002F00702803201EB421249
:105B1000506041E7DA6C0F2A02D901BE6368DB6985
:105B200004207249D70851F8271002F0070280328A
:105B300001EB421250602AE7DA6C0F2A02D901BE4B
:105B40006368DB6902206949D70851F8271002F021
:105B50000702803201EB4212506013E7DA6C0F2A21
:105B600002D901BE6368DB6901206049D70851F89A
:105B7000271002F00702803201EB42125060FCE66F
:105B80005A6C0F2A02D901BE6368DB694FF40070BA
:105B90005649D70851F8271002F00702803201EB6E
:105BA00042125060E4E65A6C0F2A02D901BE6368C3
:105BB000DB694FF480704D49D70851F8271002F087
:105BC0000702803201EB42125060CCE65A6C0F2A79
:105BD00002D901BE6368DB6980204449D70851F8C7
:105BE000271002F00702024401EB42125060B5E6B2
:105BF0005A6C0F2A02D901BE6368DB6940203B4919
:105C0000D70851F8271002F00702803201EB421248
:105C100050609EE65A6C0F2A02D901BE6368DB69A8
:105C200020203249D70851F8271002F007028032AD
:105C300001EB4212506087E65A6C0F2A02D901BE6E
:105C40006368DB6910202949D70851F8271002F052
:105C50000702803201EB4212506070E65A6C0F2A44
:105C600002D901BE6368DB6908202049D70851F8D2
:105C7000271002F00702803201EB4212506059E611
:105C80005A6C0F2A02D901BE6368DB6904201749E8
:105C9000D70851F8271002F00702803201EB4212B8
:105CA000506042E65A6C0F2A02D901BE6368DB6974
:105CB00002200E49D70851F8271002F0070280325F
:105CC00001EB421250602BE65A6C0F2A02D901BE3A
:105CD0006368DB6901200549D70851F8271002F0F5
:105CE0000702803201EB4212506014E6400834088B
:105CF0002DE9F04104460F4616461D4682B0F0B12C
:105D000007B3FEB1F5B16B687F2B1BD8234B04F1B1
:105D100010085B686946C3F30803B3FA83F2002BEB
:105D20004FF0FF3318BF0023520952424046009300
:105D30000192FFF791FB48B102B0BDE8F08101BECE
:105D4000002FDED1164802B0BDE8F08169682D78D9
:105D50000CB37F2900D901BEE369DB6813B909E000
:105D60009B683BB15A689142FAD14046FFF72CFD3F
:105D70000C48E1E7002340463360B360E36971609B
:105D8000DA683570B260DE60C7E9006402B0BDE871
:105D9000F041FFF719BD01BE01BEDAE700ED00E0FA
:105DA00001005E0903005E09F0B5044683B00028D7
:105DB00042D02368002B3DD0606800283AD01F4BAA
:105DC00069465B681030C3F30803B3FA83F2002B13
:105DD0004FF0FF3318BF002352095242CDE9003281
:105DE000FFF73AFB30BB4FF6FF73226866685568D1
:105DF0009D4214D0D6F81CC0DCF80C707FB101466F
:105E00003B4603E09A6819464AB113465A689542E0
:105E1000F8D1BB429B680CBFCCF80C308B6006F10C
:105E20001000FFF7D1FC28B9204603B0BDE8F040D0
:105E3000FFF7CABC03B0F0BD01BEBAE700ED00E059
:105E40002DE9F04705460E4617461C4684B000284B
:105E500039D0002E32D0002F33D0A3687F2B28D822
:105E600062687F2A25D821680F2922D8934220D042
:105E7000574B5B68C3F308034BBB4FF0FF334FF046
:105E8000FF3205F11008404602A9CDE90223FFF7D1
:105E9000E3FA034670B9EB69226803EB8203596E9B
:105EA000D1B14046FFF790FC4A4B184604B0BDE81C
:105EB000F087494B184604B0BDE8F08701BE002FBB
:105EC000CBD101BEC9E701BE002EC4D1F6E7434BDA
:105ED000184604B0BDE8F0872422384607F02EFFAC
:105EE000616837607F29F56100D901BEEB69DB6825
:105EF00013B90BE09B684BB15A689142FAD1384B09
:105F000040460193FFF760FC019BD3E700233B6110
:105F1000BB60EB69D4F808C0D86807F10802BCF18F
:105F20007F0FF960386106F10C09DA60C6E90325D4
:105F300007D901BEEB69DA6812B909E092683AB193
:105F400051688C45FAD14846FFF72EFF244BD7E71E
:105F50004FF0000AC7F81CA0C7F814A0EB69C7F8F7
:105F600018C0DA6807F1140CFA61C3F80CC04FF0DE
:105F7000FF324FF0FF334846C6E905C502A9CDE917
:105F80000223FFF769FA034688B940463168226860
:105F900081F82130EB6905EB820503EB82030A608F
:105FA0005F666E6504B0BDE8F047FFF70DBC06F113
:105FB0001400C6E906AAC6F800A0C6F810A001930E
:105FC000FFF7F2FE4846FFF7EFFE019B98E700BFA0
:105FD00000ED00E00E005E0901005E090C005E09A4
:105FE00003005E0900284BD070B50446C06982B03A
:105FF000002840D0234B69465B681030C3F3080388
:10600000B3FA83F2002B4FF0FF3318BF002352097D
:106010005242CDE90032FFF71FFA68BB2568E069FC
:106020002B68C26903F1180102EB81067668B5425C
:1060300007D001BE16B32368E0691B68C26903F18B
:10604000180102EB81020021143300EB830351603D
:1060500059601030FFF7B8FB00B101BE002304F116
:106060000C00E361FFF7A0FE04F1140002B0BDE8EC
:106070007040FFF799BE01BE02B070BDE069E8E76D
:1060800001BE704700ED00E02DE9F04F85B000281B
:106090003CD00C46002939D0CF698B6A9F4235D35A
:1060A00082460DF1040B002F35D000250DF1040BB5
:1060B0002F46A846A94604E0E269B8469A422AD982
:1060C0001F46636AE268A1695E5905EB450C5B46B1
:1060D000606901EBC701624402968DF80490FFF7F6
:1060E00007FE043506467B1C0028E5D00025B8F1E4
:1060F000000F07D0A06900EBC5000135FFF754FE83
:106100004545F7D1304605B0BDE8F08F174E304613
:1061100005B0BDE8F08FA168636803912168029320
:1061200001915B462269216A6069FFF789FE064694
:10613000A0B9E369202B16D8A269A2B1D4E90A500C
:10614000216ACAE90306CAE90032CAF81850CAF837
:1061500014608AF81C60CAF80810D3E7206AFFF7B9
:1061600041FFB846C2E7B846004EBFE700006609E7
:10617000E0B1D9B18446501E1F2817D810B40024AE
:10618000CCF80830019B0120CCF80C302346CCE938
:10619000001200FA03F101339A4244EA0104F8D1F3
:1061A0000020CCF810405DF8044B70470048704761
:1061B00000006609B0B1F8B50E4604460921304624
:1061C000174605F0A7FD054648B920463246092185
:1061D00005F0CCFBA5762846E7822583F8BD6FF055
:1061E000FE00F8BD6FF0FE00704700BF092105F00A
:1061F00091BD00BF70B504460E46002847D020462A
:1062000005F072FD092804D0DA222B492B4805F04D
:1062100081F9E38AD8060AD4626A2AB120469047F7
:106220000546002839D1E38A43F01003E3821907B9
:106230000ED5238B1A073CD4A56AE5B1314620461A
:10624000A847054610B110F1580F12D1228B08E073
:10625000228B1307F0D540F60F7582EA0600054041
